{"abi":[{"anonymous":false,"inputs":[{"indexed":false,"internalType":"string","name":"firId","type":"string"},{"indexed":false,"internalType":"address","name":"reporter","type":"address"}],"name":"ComplaintFiled","type":"event"},{"anonymous":false,"inputs":[{"indexed":false,"internalType":"string","name":"firId","type":"string"},{"indexed":false,"internalType":"string","name":"status","type":"string"}],"name":"StatusUpdated","type":"event"},{"inputs":[{"internalType":"uint256","name":"","type":"uint256"}],"name":"complaintIds","outputs":[{"internalType":"string","name":"","type":"string"}],"stateMutability":"view","type":"function"},{"inputs":[{"internalType":"string","name":"","type":"string"}],"name":"complaints","outputs":[{"internalType":"string","name":"firId","type":"string"},{"internalType":"string","name":"evidenceHash","type":"string"},{"internalType":"string","name":"metadataHash","type":"string"},{"internalType":"string","name":"status","type":"string"},{"internalType":"address","name":"reporter","type":"address"},{"internalType":"uint256","name":"timestamp","type":"uint256"}],"stateMutability":"view","type":"function"},{"inputs":[{"internalType":"string","name":"_firId","type":"string"},{"internalType":"string","name":"_evidenceHash","type":"string"},{"internalType":"string","name":"_metadataHash","type":"string"}],"name":"fileComplaint","outputs":[],"stateMutability":"nonpayable","type":"function"},{"inputs":[{"internalType":"string","name":"_firId","type":"string"}],"name":"getComplaint","outputs":[{"internalType":"string","name":"evidenceHash","type":"string"},{"internalType":"string","name":"metadataHash","type":"string"},{"internalType":"string","name":"status","type":"string"},{"internalType":"address","name":"reporter","type":"address"},{"internalType":"uint256","name":"timestamp","type":"uint256"}],"stateMutability":"view","type":"function"},{"inputs":[{"internalType":"string","name":"_firId","type":"string"},{"internalType":"string","name":"_status","type":"string"}],"name":"updateStatus","outputs":[],"stateMutability":"nonpayable","type":"function"}],"devdoc":{"kind":"dev","methods":{},"version":1},"evm":{"assembly":"    /* \"ComplaintRegistry.sol\":62:1885  contract ComplaintRegistry {... */\n  mstore(0x40, 0x80)\n  callvalue\n  dup1\n  iszero\n  tag_1\n  jumpi\n  0x00\n  dup1\n  revert\ntag_1:\n  pop\n  dataSize(sub_0)\n  dup1\n  dataOffset(sub_0)\n  0x00\n  codecopy\n  0x00\n  return\nstop\n\nsub_0: assembly {\n        /* \"ComplaintRegistry.sol\":62:1885  contract ComplaintRegistry {... */\n      mstore(0x40, 0x80)\n      callvalue\n      dup1\n      iszero\n      tag_1\n      jumpi\n      0x00\n      dup1\n      revert\n    tag_1:\n      pop\n      jumpi(tag_2, lt(calldatasize, 0x04))\n      shr(0xe0, calldataload(0x00))\n      dup1\n      0x05fd4b81\n      eq\n      tag_3\n      jumpi\n      dup1\n      0x2227454c\n      eq\n      tag_4\n      jumpi\n      dup1\n      0x347047cc\n      eq\n      tag_5\n      jumpi\n      dup1\n      0x9be8df79\n      eq\n      tag_6\n      jumpi\n      dup1\n      0xf423c096\n      eq\n      tag_7\n      jumpi\n    tag_2:\n      0x00\n      dup1\n      revert\n        /* \"ComplaintRegistry.sol\":1383:1882  function getComplaint(string memory _firId) public view returns (... */\n    tag_3:\n      tag_8\n      0x04\n      dup1\n      calldatasize\n      sub\n      dup2\n      add\n      swap1\n      tag_9\n      swap2\n      swap1\n      tag_10\n      jump\t// in\n    tag_9:\n      tag_11\n      jump\t// in\n    tag_8:\n      mload(0x40)\n      tag_12\n      swap6\n      swap5\n      swap4\n      swap3\n      swap2\n      swap1\n      tag_13\n      jump\t// in\n    tag_12:\n      mload(0x40)\n      dup1\n      swap2\n      sub\n      swap1\n      return\n        /* \"ComplaintRegistry.sol\":497:1110  function fileComplaint(... */\n    tag_4:\n      tag_14\n      0x04\n      dup1\n      calldatasize\n      sub\n      dup2\n      add\n      swap1\n      tag_15\n      swap2\n      swap1\n      tag_16\n      jump\t// in\n    tag_15:\n      tag_17\n      jump\t// in\n    tag_14:\n      stop\n        /* \"ComplaintRegistry.sol\":1118:1375  function updateStatus(string memory _firId, string memory _status) public {... */\n    tag_5:\n      tag_18\n      0x04\n      dup1\n      calldatasize\n      sub\n      dup2\n      add\n      swap1\n      tag_19\n      swap2\n      swap1\n      tag_20\n      jump\t// in\n    tag_19:\n      tag_21\n      jump\t// in\n    tag_18:\n      stop\n        /* \"ComplaintRegistry.sol\":344:372  string[] public complaintIds */\n    tag_6:\n      tag_22\n      0x04\n      dup1\n      calldatasize\n      sub\n      dup2\n      add\n      swap1\n      tag_23\n      swap2\n      swap1\n      tag_24\n      jump\t// in\n    tag_23:\n      tag_25\n      jump\t// in\n    tag_22:\n      mload(0x40)\n      tag_26\n      swap2\n      swap1\n      tag_27\n      jump\t// in\n    tag_26:\n      mload(0x40)\n      dup1\n      swap2\n      sub\n      swap1\n      return\n        /* \"ComplaintRegistry.sol\":291:337  mapping(string => Complaint) public complaints */\n    tag_7:\n      tag_28\n      0x04\n      dup1\n      calldatasize\n      sub\n      dup2\n      add\n      swap1\n      tag_29\n      swap2\n      swap1\n      tag_10\n      jump\t// in\n    tag_29:\n      tag_30\n      jump\t// in\n    tag_28:\n      mload(0x40)\n      tag_31\n      swap7\n      swap6\n      swap5\n      swap4\n      swap3\n      swap2\n      swap1\n      tag_32\n      jump\t// in\n    tag_31:\n      mload(0x40)\n      dup1\n      swap2\n      sub\n      swap1\n      return\n        /* \"ComplaintRegistry.sol\":1383:1882  function getComplaint(string memory _firId) public view returns (... */\n    tag_11:\n        /* \"ComplaintRegistry.sol\":1458:1484  string memory evidenceHash */\n      0x60\n        /* \"ComplaintRegistry.sol\":1495:1521  string memory metadataHash */\n      dup1\n        /* \"ComplaintRegistry.sol\":1532:1552  string memory status */\n      0x60\n        /* \"ComplaintRegistry.sol\":1563:1579  address reporter */\n      0x00\n        /* \"ComplaintRegistry.sol\":1590:1607  uint256 timestamp */\n      dup1\n        /* \"ComplaintRegistry.sol\":1626:1652  Complaint memory complaint */\n      0x00\n        /* \"ComplaintRegistry.sol\":1655:1665  complaints */\n      dup1\n        /* \"ComplaintRegistry.sol\":1666:1672  _firId */\n      dup8\n        /* \"ComplaintRegistry.sol\":1655:1673  complaints[_firId] */\n      mload(0x40)\n      tag_34\n      swap2\n      swap1\n      tag_35\n      jump\t// in\n    tag_34:\n      swap1\n      dup2\n      mstore\n      0x20\n      add\n      mload(0x40)\n      dup1\n      swap2\n      sub\n      swap1\n      keccak256\n        /* \"ComplaintRegistry.sol\":1626:1673  Complaint memory complaint = complaints[_firId] */\n      mload(0x40)\n      dup1\n      0xc0\n      add\n      0x40\n      mstore\n      swap1\n      dup2\n      0x00\n      dup3\n      add\n      dup1\n      sload\n      tag_36\n      swap1\n      tag_37\n      jump\t// in\n    tag_36:\n      dup1\n      0x1f\n      add\n      0x20\n      dup1\n      swap2\n      div\n      mul\n      0x20\n      add\n      mload(0x40)\n      swap1\n      dup2\n      add\n      0x40\n      mstore\n      dup1\n      swap3\n      swap2\n      swap1\n      dup2\n      dup2\n      mstore\n      0x20\n      add\n      dup3\n      dup1\n      sload\n      tag_38\n      swap1\n      tag_37\n      jump\t// in\n    tag_38:\n      dup1\n      iszero\n      tag_39\n      jumpi\n      dup1\n      0x1f\n      lt\n      tag_40\n      jumpi\n      0x0100\n      dup1\n      dup4\n      sload\n      div\n      mul\n      dup4\n      mstore\n      swap2\n      0x20\n      add\n      swap2\n      jump(tag_39)\n    tag_40:\n      dup3\n      add\n      swap2\n      swap1\n      0x00\n      mstore\n      keccak256(0x00, 0x20)\n      swap1\n    tag_41:\n      dup2\n      sload\n      dup2\n      mstore\n      swap1\n      0x01\n      add\n      swap1\n      0x20\n      add\n      dup1\n      dup4\n      gt\n      tag_41\n      jumpi\n      dup3\n      swap1\n      sub\n      0x1f\n      and\n      dup3\n      add\n      swap2\n    tag_39:\n      pop\n      pop\n      pop\n      pop\n      pop\n      dup2\n      mstore\n      0x20\n      add\n      0x01\n      dup3\n      add\n      dup1\n      sload\n      tag_42\n      swap1\n      tag_37\n      jump\t// in\n    tag_42:\n      dup1\n      0x1f\n      add\n      0x20\n      dup1\n      swap2\n      div\n      mul\n      0x20\n      add\n      mload(0x40)\n      swap1\n      dup2\n      add\n      0x40\n      mstore\n      dup1\n      swap3\n      swap2\n      swap1\n      dup2\n      dup2\n      mstore\n      0x20\n      add\n      dup3\n      dup1\n      sload\n      tag_43\n      swap1\n      tag_37\n      jump\t// in\n    tag_43:\n      dup1\n      iszero\n      tag_44\n      jumpi\n      dup1\n      0x1f\n      lt\n      tag_45\n      jumpi\n      0x0100\n      dup1\n      dup4\n      sload\n      div\n      mul\n      dup4\n      mstore\n      swap2\n      0x20\n      add\n      swap2\n      jump(tag_44)\n    tag_45:\n      dup3\n      add\n      swap2\n      swap1\n      0x00\n      mstore\n      keccak256(0x00, 0x20)\n      swap1\n    tag_46:\n      dup2\n      sload\n      dup2\n      mstore\n      swap1\n      0x01\n      add\n      swap1\n      0x20\n      add\n      dup1\n      dup4\n      gt\n      tag_46\n      jumpi\n      dup3\n      swap1\n      sub\n      0x1f\n      and\n      dup3\n      add\n      swap2\n    tag_44:\n      pop\n      pop\n      pop\n      pop\n      pop\n      dup2\n      mstore\n      0x20\n      add\n      0x02\n      dup3\n      add\n      dup1\n      sload\n      tag_47\n      swap1\n      tag_37\n      jump\t// in\n    tag_47:\n      dup1\n      0x1f\n      add\n      0x20\n      dup1\n      swap2\n      div\n      mul\n      0x20\n      add\n      mload(0x40)\n      swap1\n      dup2\n      add\n      0x40\n      mstore\n      dup1\n      swap3\n      swap2\n      swap1\n      dup2\n      dup2\n      mstore\n      0x20\n      add\n      dup3\n      dup1\n      sload\n      tag_48\n      swap1\n      tag_37\n      jump\t// in\n    tag_48:\n      dup1\n      iszero\n      tag_49\n      jumpi\n      dup1\n      0x1f\n      lt\n      tag_50\n      jumpi\n      0x0100\n      dup1\n      dup4\n      sload\n      div\n      mul\n      dup4\n      mstore\n      swap2\n      0x20\n      add\n      swap2\n      jump(tag_49)\n    tag_50:\n      dup3\n      add\n      swap2\n      swap1\n      0x00\n      mstore\n      keccak256(0x00, 0x20)\n      swap1\n    tag_51:\n      dup2\n      sload\n      dup2\n      mstore\n      swap1\n      0x01\n      add\n      swap1\n      0x20\n      add\n      dup1\n      dup4\n      gt\n      tag_51\n      jumpi\n      dup3\n      swap1\n      sub\n      0x1f\n      and\n      dup3\n      add\n      swap2\n    tag_49:\n      pop\n      pop\n      pop\n      pop\n      pop\n      dup2\n      mstore\n      0x20\n      add\n      0x03\n      dup3\n      add\n      dup1\n      sload\n      tag_52\n      swap1\n      tag_37\n      jump\t// in\n    tag_52:\n      dup1\n      0x1f\n      add\n      0x20\n      dup1\n      swap2\n      div\n      mul\n      0x20\n      add\n      mload(0x40)\n      swap1\n      dup2\n      add\n      0x40\n      mstore\n      dup1\n      swap3\n      swap2\n      swap1\n      dup2\n      dup2\n      mstore\n      0x20\n      add\n      dup3\n      dup1\n      sload\n      tag_53\n      swap1\n      tag_37\n      jump\t// in\n    tag_53:\n      dup1\n      iszero\n      tag_54\n      jumpi\n      dup1\n      0x1f\n      lt\n      tag_55\n      jumpi\n      0x0100\n      dup1\n      dup4\n      sload\n      div\n      mul\n      dup4\n      mstore\n      swap2\n      0x20\n      add\n      swap2\n      jump(tag_54)\n    tag_55:\n      dup3\n      add\n      swap2\n      swap1\n      0x00\n      mstore\n      keccak256(0x00, 0x20)\n      swap1\n    tag_56:\n      dup2\n      sload\n      dup2\n      mstore\n      swap1\n      0x01\n      add\n      swap1\n      0x20\n      add\n      dup1\n      dup4\n      gt\n      tag_56\n      jumpi\n      dup3\n      swap1\n      sub\n      0x1f\n      and\n      dup3\n      add\n      swap2\n    tag_54:\n      pop\n      pop\n      pop\n      pop\n      pop\n      dup2\n      mstore\n      0x20\n      add\n      0x04\n      dup3\n      add\n      0x00\n      swap1\n      sload\n      swap1\n      0x0100\n      exp\n      swap1\n      div\n      0xffffffffffffffffffffffffffffffffffffffff\n      and\n      0xffffffffffffffffffffffffffffffffffffffff\n      and\n      0xffffffffffffffffffffffffffffffffffffffff\n      and\n      dup2\n      mstore\n      0x20\n      add\n      0x05\n      dup3\n      add\n      sload\n      dup2\n      mstore\n      pop\n      pop\n      swap1\n      pop\n        /* \"ComplaintRegistry.sol\":1706:1715  complaint */\n      dup1\n        /* \"ComplaintRegistry.sol\":1706:1728  complaint.evidenceHash */\n      0x20\n      add\n      mload\n        /* \"ComplaintRegistry.sol\":1743:1752  complaint */\n      dup2\n        /* \"ComplaintRegistry.sol\":1743:1765  complaint.metadataHash */\n      0x40\n      add\n      mload\n        /* \"ComplaintRegistry.sol\":1780:1789  complaint */\n      dup3\n        /* \"ComplaintRegistry.sol\":1780:1796  complaint.status */\n      0x60\n      add\n      mload\n        /* \"ComplaintRegistry.sol\":1811:1820  complaint */\n      dup4\n        /* \"ComplaintRegistry.sol\":1811:1829  complaint.reporter */\n      0x80\n      add\n      mload\n        /* \"ComplaintRegistry.sol\":1844:1853  complaint */\n      dup5\n        /* \"ComplaintRegistry.sol\":1844:1863  complaint.timestamp */\n      0xa0\n      add\n      mload\n        /* \"ComplaintRegistry.sol\":1684:1874  return (... */\n      swap6\n      pop\n      swap6\n      pop\n      swap6\n      pop\n      swap6\n      pop\n      swap6\n      pop\n      pop\n        /* \"ComplaintRegistry.sol\":1383:1882  function getComplaint(string memory _firId) public view returns (... */\n      swap2\n      swap4\n      swap6\n      swap1\n      swap3\n      swap5\n      pop\n      jump\t// out\n        /* \"ComplaintRegistry.sol\":497:1110  function fileComplaint(... */\n    tag_17:\n        /* \"ComplaintRegistry.sol\":699:700  0 */\n      0x00\n        /* \"ComplaintRegistry.sol\":660:701  complaints[_firId].reporter == address(0) */\n      0xffffffffffffffffffffffffffffffffffffffff\n      and\n        /* \"ComplaintRegistry.sol\":660:670  complaints */\n      0x00\n        /* \"ComplaintRegistry.sol\":671:677  _firId */\n      dup5\n        /* \"ComplaintRegistry.sol\":660:678  complaints[_firId] */\n      mload(0x40)\n      tag_58\n      swap2\n      swap1\n      tag_35\n      jump\t// in\n    tag_58:\n      swap1\n      dup2\n      mstore\n      0x20\n      add\n      mload(0x40)\n      dup1\n      swap2\n      sub\n      swap1\n      keccak256\n        /* \"ComplaintRegistry.sol\":660:687  complaints[_firId].reporter */\n      0x04\n      add\n      0x00\n      swap1\n      sload\n      swap1\n      0x0100\n      exp\n      swap1\n      div\n      0xffffffffffffffffffffffffffffffffffffffff\n      and\n        /* \"ComplaintRegistry.sol\":660:701  complaints[_firId].reporter == address(0) */\n      0xffffffffffffffffffffffffffffffffffffffff\n      and\n      eq\n        /* \"ComplaintRegistry.sol\":652:724  require(complaints[_firId].reporter == address(0), \"FIR already exists\") */\n      tag_59\n      jumpi\n      mload(0x40)\n      0x08c379a000000000000000000000000000000000000000000000000000000000\n      dup2\n      mstore\n      0x04\n      add\n      tag_60\n      swap1\n      tag_61\n      jump\t// in\n    tag_60:\n      mload(0x40)\n      dup1\n      swap2\n      sub\n      swap1\n      revert\n    tag_59:\n        /* \"ComplaintRegistry.sol\":766:1006  Complaint({... */\n      mload(0x40)\n      dup1\n      0xc0\n      add\n      0x40\n      mstore\n      dup1\n        /* \"ComplaintRegistry.sol\":798:804  _firId */\n      dup5\n        /* \"ComplaintRegistry.sol\":766:1006  Complaint({... */\n      dup2\n      mstore\n      0x20\n      add\n        /* \"ComplaintRegistry.sol\":833:846  _evidenceHash */\n      dup4\n        /* \"ComplaintRegistry.sol\":766:1006  Complaint({... */\n      dup2\n      mstore\n      0x20\n      add\n        /* \"ComplaintRegistry.sol\":875:888  _metadataHash */\n      dup3\n        /* \"ComplaintRegistry.sol\":766:1006  Complaint({... */\n      dup2\n      mstore\n      0x20\n      add\n      mload(0x40)\n      dup1\n      0x40\n      add\n      0x40\n      mstore\n      dup1\n      0x05\n      dup2\n      mstore\n      0x20\n      add\n      0x46494c4544000000000000000000000000000000000000000000000000000000\n      dup2\n      mstore\n      pop\n      dup2\n      mstore\n      0x20\n      add\n        /* \"ComplaintRegistry.sol\":943:953  msg.sender */\n      caller\n        /* \"ComplaintRegistry.sol\":766:1006  Complaint({... */\n      0xffffffffffffffffffffffffffffffffffffffff\n      and\n      dup2\n      mstore\n      0x20\n      add\n        /* \"ComplaintRegistry.sol\":979:994  block.timestamp */\n      timestamp\n        /* \"ComplaintRegistry.sol\":766:1006  Complaint({... */\n      dup2\n      mstore\n      pop\n        /* \"ComplaintRegistry.sol\":745:755  complaints */\n      0x00\n        /* \"ComplaintRegistry.sol\":756:762  _firId */\n      dup5\n        /* \"ComplaintRegistry.sol\":745:763  complaints[_firId] */\n      mload(0x40)\n      tag_62\n      swap2\n      swap1\n      tag_35\n      jump\t// in\n    tag_62:\n      swap1\n      dup2\n      mstore\n      0x20\n      add\n      mload(0x40)\n      dup1\n      swap2\n      sub\n      swap1\n      keccak256\n        /* \"ComplaintRegistry.sol\":745:1006  complaints[_firId] = Complaint({... */\n      0x00\n      dup3\n      add\n      mload\n      dup2\n      0x00\n      add\n      swap1\n      dup2\n      tag_63\n      swap2\n      swap1\n      tag_64\n      jump\t// in\n    tag_63:\n      pop\n      0x20\n      dup3\n      add\n      mload\n      dup2\n      0x01\n      add\n      swap1\n      dup2\n      tag_65\n      swap2\n      swap1\n      tag_64\n      jump\t// in\n    tag_65:\n      pop\n      0x40\n      dup3\n      add\n      mload\n      dup2\n      0x02\n      add\n      swap1\n      dup2\n      tag_66\n      swap2\n      swap1\n      tag_64\n      jump\t// in\n    tag_66:\n      pop\n      0x60\n      dup3\n      add\n      mload\n      dup2\n      0x03\n      add\n      swap1\n      dup2\n      tag_67\n      swap2\n      swap1\n      tag_64\n      jump\t// in\n    tag_67:\n      pop\n      0x80\n      dup3\n      add\n      mload\n      dup2\n      0x04\n      add\n      exp(0x0100, 0x00)\n      dup2\n      sload\n      dup2\n      0xffffffffffffffffffffffffffffffffffffffff\n      mul\n      not\n      and\n      swap1\n      dup4\n      0xffffffffffffffffffffffffffffffffffffffff\n      and\n      mul\n      or\n      swap1\n      sstore\n      pop\n      0xa0\n      dup3\n      add\n      mload\n      dup2\n      0x05\n      add\n      sstore\n      swap1\n      pop\n      pop\n        /* \"ComplaintRegistry.sol\":1027:1039  complaintIds */\n      0x01\n        /* \"ComplaintRegistry.sol\":1045:1051  _firId */\n      dup4\n        /* \"ComplaintRegistry.sol\":1027:1052  complaintIds.push(_firId) */\n      swap1\n      dup1\n      0x01\n      dup2\n      sload\n      add\n      dup1\n      dup3\n      sstore\n      dup1\n      swap2\n      pop\n      pop\n      0x01\n      swap1\n      sub\n      swap1\n      0x00\n      mstore\n      keccak256(0x00, 0x20)\n      add\n      0x00\n      swap1\n      swap2\n      swap1\n      swap2\n      swap1\n      swap2\n      pop\n      swap1\n      dup2\n      tag_69\n      swap2\n      swap1\n      tag_64\n      jump\t// in\n    tag_69:\n      pop\n        /* \"ComplaintRegistry.sol\":1068:1102  ComplaintFiled(_firId, msg.sender) */\n      0xf4690bb36d9e13c5eb5eac5fa522903d950fad6fa0e3a7811f176d7022548ce4\n        /* \"ComplaintRegistry.sol\":1083:1089  _firId */\n      dup4\n        /* \"ComplaintRegistry.sol\":1091:1101  msg.sender */\n      caller\n        /* \"ComplaintRegistry.sol\":1068:1102  ComplaintFiled(_firId, msg.sender) */\n      mload(0x40)\n      tag_70\n      swap3\n      swap2\n      swap1\n      tag_71\n      jump\t// in\n    tag_70:\n      mload(0x40)\n      dup1\n      swap2\n      sub\n      swap1\n      log1\n        /* \"ComplaintRegistry.sol\":497:1110  function fileComplaint(... */\n      pop\n      pop\n      pop\n      jump\t// out\n        /* \"ComplaintRegistry.sol\":1118:1375  function updateStatus(string memory _firId, string memory _status) public {... */\n    tag_21:\n        /* \"ComplaintRegistry.sol\":1250:1251  0 */\n      0x00\n        /* \"ComplaintRegistry.sol\":1211:1252  complaints[_firId].reporter != address(0) */\n      0xffffffffffffffffffffffffffffffffffffffff\n      and\n        /* \"ComplaintRegistry.sol\":1211:1221  complaints */\n      0x00\n        /* \"ComplaintRegistry.sol\":1222:1228  _firId */\n      dup4\n        /* \"ComplaintRegistry.sol\":1211:1229  complaints[_firId] */\n      mload(0x40)\n      tag_73\n      swap2\n      swap1\n      tag_35\n      jump\t// in\n    tag_73:\n      swap1\n      dup2\n      mstore\n      0x20\n      add\n      mload(0x40)\n      dup1\n      swap2\n      sub\n      swap1\n      keccak256\n        /* \"ComplaintRegistry.sol\":1211:1238  complaints[_firId].reporter */\n      0x04\n      add\n      0x00\n      swap1\n      sload\n      swap1\n      0x0100\n      exp\n      swap1\n      div\n      0xffffffffffffffffffffffffffffffffffffffff\n      and\n        /* \"ComplaintRegistry.sol\":1211:1252  complaints[_firId].reporter != address(0) */\n      0xffffffffffffffffffffffffffffffffffffffff\n      and\n      sub\n        /* \"ComplaintRegistry.sol\":1203:1275  require(complaints[_firId].reporter != address(0), \"FIR does not exist\") */\n      tag_74\n      jumpi\n      mload(0x40)\n      0x08c379a000000000000000000000000000000000000000000000000000000000\n      dup2\n      mstore\n      0x04\n      add\n      tag_75\n      swap1\n      tag_76\n      jump\t// in\n    tag_75:\n      mload(0x40)\n      dup1\n      swap2\n      sub\n      swap1\n      revert\n    tag_74:\n        /* \"ComplaintRegistry.sol\":1314:1321  _status */\n      dup1\n        /* \"ComplaintRegistry.sol\":1286:1296  complaints */\n      0x00\n        /* \"ComplaintRegistry.sol\":1297:1303  _firId */\n      dup4\n        /* \"ComplaintRegistry.sol\":1286:1304  complaints[_firId] */\n      mload(0x40)\n      tag_77\n      swap2\n      swap1\n      tag_35\n      jump\t// in\n    tag_77:\n      swap1\n      dup2\n      mstore\n      0x20\n      add\n      mload(0x40)\n      dup1\n      swap2\n      sub\n      swap1\n      keccak256\n        /* \"ComplaintRegistry.sol\":1286:1311  complaints[_firId].status */\n      0x03\n      add\n        /* \"ComplaintRegistry.sol\":1286:1321  complaints[_firId].status = _status */\n      swap1\n      dup2\n      tag_78\n      swap2\n      swap1\n      tag_64\n      jump\t// in\n    tag_78:\n      pop\n        /* \"ComplaintRegistry.sol\":1337:1367  StatusUpdated(_firId, _status) */\n      0xb75b1fec1bc9156569ae9f72fb29c6e6727b297e191d358465fff4c09d8f7d26\n        /* \"ComplaintRegistry.sol\":1351:1357  _firId */\n      dup3\n        /* \"ComplaintRegistry.sol\":1359:1366  _status */\n      dup3\n        /* \"ComplaintRegistry.sol\":1337:1367  StatusUpdated(_firId, _status) */\n      mload(0x40)\n      tag_79\n      swap3\n      swap2\n      swap1\n      tag_80\n      jump\t// in\n    tag_79:\n      mload(0x40)\n      dup1\n      swap2\n      sub\n      swap1\n      log1\n        /* \"ComplaintRegistry.sol\":1118:1375  function updateStatus(string memory _firId, string memory _status) public {... */\n      pop\n      pop\n      jump\t// out\n        /* \"ComplaintRegistry.sol\":344:372  string[] public complaintIds */\n    tag_25:\n      0x01\n      dup2\n      dup2\n      sload\n      dup2\n      lt\n      tag_81\n      jumpi\n      0x00\n      dup1\n      revert\n    tag_81:\n      swap1\n      0x00\n      mstore\n      keccak256(0x00, 0x20)\n      add\n      0x00\n      swap2\n      pop\n      swap1\n      pop\n      dup1\n      sload\n      tag_83\n      swap1\n      tag_37\n      jump\t// in\n    tag_83:\n      dup1\n      0x1f\n      add\n      0x20\n      dup1\n      swap2\n      div\n      mul\n      0x20\n      add\n      mload(0x40)\n      swap1\n      dup2\n      add\n      0x40\n      mstore\n      dup1\n      swap3\n      swap2\n      swap1\n      dup2\n      dup2\n      mstore\n      0x20\n      add\n      dup3\n      dup1\n      sload\n      tag_84\n      swap1\n      tag_37\n      jump\t// in\n    tag_84:\n      dup1\n      iszero\n      tag_85\n      jumpi\n      dup1\n      0x1f\n      lt\n      tag_86\n      jumpi\n      0x0100\n      dup1\n      dup4\n      sload\n      div\n      mul\n      dup4\n      mstore\n      swap2\n      0x20\n      add\n      swap2\n      jump(tag_85)\n    tag_86:\n      dup3\n      add\n      swap2\n      swap1\n      0x00\n      mstore\n      keccak256(0x00, 0x20)\n      swap1\n    tag_87:\n      dup2\n      sload\n      dup2\n      mstore\n      swap1\n      0x01\n      add\n      swap1\n      0x20\n      add\n      dup1\n      dup4\n      gt\n      tag_87\n      jumpi\n      dup3\n      swap1\n      sub\n      0x1f\n      and\n      dup3\n      add\n      swap2\n    tag_85:\n      pop\n      pop\n      pop\n      pop\n      pop\n      dup2\n      jump\t// out\n        /* \"ComplaintRegistry.sol\":291:337  mapping(string => Complaint) public complaints */\n    tag_30:\n      0x00\n      dup2\n      dup1\n      mload\n      0x20\n      dup2\n      add\n      dup3\n      add\n      dup1\n      mload\n      dup5\n      dup3\n      mstore\n      0x20\n      dup4\n      add\n      0x20\n      dup6\n      add\n      keccak256\n      dup2\n      dup4\n      mstore\n      dup1\n      swap6\n      pop\n      pop\n      pop\n      pop\n      pop\n      pop\n      0x00\n      swap2\n      pop\n      swap1\n      pop\n      dup1\n      0x00\n      add\n      dup1\n      sload\n      tag_88\n      swap1\n      tag_37\n      jump\t// in\n    tag_88:\n      dup1\n      0x1f\n      add\n      0x20\n      dup1\n      swap2\n      div\n      mul\n      0x20\n      add\n      mload(0x40)\n      swap1\n      dup2\n      add\n      0x40\n      mstore\n      dup1\n      swap3\n      swap2\n      swap1\n      dup2\n      dup2\n      mstore\n      0x20\n      add\n      dup3\n      dup1\n      sload\n      tag_89\n      swap1\n      tag_37\n      jump\t// in\n    tag_89:\n      dup1\n      iszero\n      tag_90\n      jumpi\n      dup1\n      0x1f\n      lt\n      tag_91\n      jumpi\n      0x0100\n      dup1\n      dup4\n      sload\n      div\n      mul\n      dup4\n      mstore\n      swap2\n      0x20\n      add\n      swap2\n      jump(tag_90)\n    tag_91:\n      dup3\n      add\n      swap2\n      swap1\n      0x00\n      mstore\n      keccak256(0x00, 0x20)\n      swap1\n    tag_92:\n      dup2\n      sload\n      dup2\n      mstore\n      swap1\n      0x01\n      add\n      swap1\n      0x20\n      add\n      dup1\n      dup4\n      gt\n      tag_92\n      jumpi\n      dup3\n      swap1\n      sub\n      0x1f\n      and\n      dup3\n      add\n      swap2\n    tag_90:\n      pop\n      pop\n      pop\n      pop\n      pop\n      swap1\n      dup1\n      0x01\n      add\n      dup1\n      sload\n      tag_93\n      swap1\n      tag_37\n      jump\t// in\n    tag_93:\n      dup1\n      0x1f\n      add\n      0x20\n      dup1\n      swap2\n      div\n      mul\n      0x20\n      add\n      mload(0x40)\n      swap1\n      dup2\n      add\n      0x40\n      mstore\n      dup1\n      swap3\n      swap2\n      swap1\n      dup2\n      dup2\n      mstore\n      0x20\n      add\n      dup3\n      dup1\n      sload\n      tag_94\n      swap1\n      tag_37\n      jump\t// in\n    tag_94:\n      dup1\n      iszero\n      tag_95\n      jumpi\n      dup1\n      0x1f\n      lt\n      tag_96\n      jumpi\n      0x0100\n      dup1\n      dup4\n      sload\n      div\n      mul\n      dup4\n      mstore\n      swap2\n      0x20\n      add\n      swap2\n      jump(tag_95)\n    tag_96:\n      dup3\n      add\n      swap2\n      swap1\n      0x00\n      mstore\n      keccak256(0x00, 0x20)\n      swap1\n    tag_97:\n      dup2\n      sload\n      dup2\n      mstore\n      swap1\n      0x01\n      add\n      swap1\n      0x20\n      add\n      dup1\n      dup4\n      gt\n      tag_97\n      jumpi\n      dup3\n      swap1\n      sub\n      0x1f\n      and\n      dup3\n      add\n      swap2\n    tag_95:\n      pop\n      pop\n      pop\n      pop\n      pop\n      swap1\n      dup1\n      0x02\n      add\n      dup1\n      sload\n      tag_98\n      swap1\n      tag_37\n      jump\t// in\n    tag_98:\n      dup1\n      0x1f\n      add\n      0x20\n      dup1\n      swap2\n      div\n      mul\n      0x20\n      add\n      mload(0x40)\n      swap1\n      dup2\n      add\n      0x40\n      mstore\n      dup1\n      swap3\n      swap2\n      swap1\n      dup2\n      dup2\n      mstore\n      0x20\n      add\n      dup3\n      dup1\n      sload\n      tag_99\n      swap1\n      tag_37\n      jump\t// in\n    tag_99:\n      dup1\n      iszero\n      tag_100\n      jumpi\n      dup1\n      0x1f\n      lt\n      tag_101\n      jumpi\n      0x0100\n      dup1\n      dup4\n      sload\n      div\n      mul\n      dup4\n      mstore\n      swap2\n      0x20\n      add\n      swap2\n      jump(tag_100)\n    tag_101:\n      dup3\n      add\n      swap2\n      swap1\n      0x00\n      mstore\n      keccak256(0x00, 0x20)\n      swap1\n    tag_102:\n      dup2\n      sload\n      dup2\n      mstore\n      swap1\n      0x01\n      add\n      swap1\n      0x20\n      add\n      dup1\n      dup4\n      gt\n      tag_102\n      jumpi\n      dup3\n      swap1\n      sub\n      0x1f\n      and\n      dup3\n      add\n      swap2\n    tag_100:\n      pop\n      pop\n      pop\n      pop\n      pop\n      swap1\n      dup1\n      0x03\n      add\n      dup1\n      sload\n      tag_103\n      swap1\n      tag_37\n      jump\t// in\n    tag_103:\n      dup1\n      0x1f\n      add\n      0x20\n      dup1\n      swap2\n      div\n      mul\n      0x20\n      add\n      mload(0x40)\n      swap1\n      dup2\n      add\n      0x40\n      mstore\n      dup1\n      swap3\n      swap2\n      swap1\n      dup2\n      dup2\n      mstore\n      0x20\n      add\n      dup3\n      dup1\n      sload\n      tag_104\n      swap1\n      tag_37\n      jump\t// in\n    tag_104:\n      dup1\n      iszero\n      tag_105\n      jumpi\n      dup1\n      0x1f\n      lt\n      tag_106\n      jumpi\n      0x0100\n      dup1\n      dup4\n      sload\n      div\n      mul\n      dup4\n      mstore\n      swap2\n      0x20\n      add\n      swap2\n      jump(tag_105)\n    tag_106:\n      dup3\n      add\n      swap2\n      swap1\n      0x00\n      mstore\n      keccak256(0x00, 0x20)\n      swap1\n    tag_107:\n      dup2\n      sload\n      dup2\n      mstore\n      swap1\n      0x01\n      add\n      swap1\n      0x20\n      add\n      dup1\n      dup4\n      gt\n      tag_107\n      jumpi\n      dup3\n      swap1\n      sub\n      0x1f\n      and\n      dup3\n      add\n      swap2\n    tag_105:\n      pop\n      pop\n      pop\n      pop\n      pop\n      swap1\n      dup1\n      0x04\n      add\n      0x00\n      swap1\n      sload\n      swap1\n      0x0100\n      exp\n      swap1\n      div\n      0xffffffffffffffffffffffffffffffffffffffff\n      and\n      swap1\n      dup1\n      0x05\n      add\n      sload\n      swap1\n      pop\n      dup7\n      jump\t// out\n        /* \"#utility.yul\":7:82   */\n    tag_108:\n        /* \"#utility.yul\":40:46   */\n      0x00\n        /* \"#utility.yul\":73:75   */\n      0x40\n        /* \"#utility.yul\":67:76   */\n      mload\n        /* \"#utility.yul\":57:76   */\n      swap1\n      pop\n        /* \"#utility.yul\":7:82   */\n      swap1\n      jump\t// out\n        /* \"#utility.yul\":88:205   */\n    tag_109:\n        /* \"#utility.yul\":197:198   */\n      0x00\n        /* \"#utility.yul\":194:195   */\n      dup1\n        /* \"#utility.yul\":187:199   */\n      revert\n        /* \"#utility.yul\":211:328   */\n    tag_110:\n        /* \"#utility.yul\":320:321   */\n      0x00\n        /* \"#utility.yul\":317:318   */\n      dup1\n        /* \"#utility.yul\":310:322   */\n      revert\n        /* \"#utility.yul\":334:451   */\n    tag_111:\n        /* \"#utility.yul\":443:444   */\n      0x00\n        /* \"#utility.yul\":440:441   */\n      dup1\n        /* \"#utility.yul\":433:445   */\n      revert\n        /* \"#utility.yul\":457:574   */\n    tag_112:\n        /* \"#utility.yul\":566:567   */\n      0x00\n        /* \"#utility.yul\":563:564   */\n      dup1\n        /* \"#utility.yul\":556:568   */\n      revert\n        /* \"#utility.yul\":580:682   */\n    tag_113:\n        /* \"#utility.yul\":621:627   */\n      0x00\n        /* \"#utility.yul\":672:674   */\n      0x1f\n        /* \"#utility.yul\":668:675   */\n      not\n        /* \"#utility.yul\":663:665   */\n      0x1f\n        /* \"#utility.yul\":656:661   */\n      dup4\n        /* \"#utility.yul\":652:666   */\n      add\n        /* \"#utility.yul\":648:676   */\n      and\n        /* \"#utility.yul\":638:676   */\n      swap1\n      pop\n        /* \"#utility.yul\":580:682   */\n      swap2\n      swap1\n      pop\n      jump\t// out\n        /* \"#utility.yul\":688:868   */\n    tag_114:\n        /* \"#utility.yul\":736:813   */\n      0x4e487b7100000000000000000000000000000000000000000000000000000000\n        /* \"#utility.yul\":733:734   */\n      0x00\n        /* \"#utility.yul\":726:814   */\n      mstore\n        /* \"#utility.yul\":833:837   */\n      0x41\n        /* \"#utility.yul\":830:831   */\n      0x04\n        /* \"#utility.yul\":823:838   */\n      mstore\n        /* \"#utility.yul\":857:861   */\n      0x24\n        /* \"#utility.yul\":854:855   */\n      0x00\n        /* \"#utility.yul\":847:862   */\n      revert\n        /* \"#utility.yul\":874:1155   */\n    tag_115:\n        /* \"#utility.yul\":957:984   */\n      tag_163\n        /* \"#utility.yul\":979:983   */\n      dup3\n        /* \"#utility.yul\":957:984   */\n      tag_113\n      jump\t// in\n    tag_163:\n        /* \"#utility.yul\":949:955   */\n      dup2\n        /* \"#utility.yul\":945:985   */\n      add\n        /* \"#utility.yul\":1087:1093   */\n      dup2\n        /* \"#utility.yul\":1075:1085   */\n      dup2\n        /* \"#utility.yul\":1072:1094   */\n      lt\n        /* \"#utility.yul\":1051:1069   */\n      0xffffffffffffffff\n        /* \"#utility.yul\":1039:1049   */\n      dup3\n        /* \"#utility.yul\":1036:1070   */\n      gt\n        /* \"#utility.yul\":1033:1095   */\n      or\n        /* \"#utility.yul\":1030:1118   */\n      iszero\n      tag_164\n      jumpi\n        /* \"#utility.yul\":1098:1116   */\n      tag_165\n      tag_114\n      jump\t// in\n    tag_165:\n        /* \"#utility.yul\":1030:1118   */\n    tag_164:\n        /* \"#utility.yul\":1138:1148   */\n      dup1\n        /* \"#utility.yul\":1134:1136   */\n      0x40\n        /* \"#utility.yul\":1127:1149   */\n      mstore\n        /* \"#utility.yul\":917:1155   */\n      pop\n        /* \"#utility.yul\":874:1155   */\n      pop\n      pop\n      jump\t// out\n        /* \"#utility.yul\":1161:1290   */\n    tag_116:\n        /* \"#utility.yul\":1195:1201   */\n      0x00\n        /* \"#utility.yul\":1222:1242   */\n      tag_167\n      tag_108\n      jump\t// in\n    tag_167:\n        /* \"#utility.yul\":1212:1242   */\n      swap1\n      pop\n        /* \"#utility.yul\":1251:1284   */\n      tag_168\n        /* \"#utility.yul\":1279:1283   */\n      dup3\n        /* \"#utility.yul\":1271:1277   */\n      dup3\n        /* \"#utility.yul\":1251:1284   */\n      tag_115\n      jump\t// in\n    tag_168:\n        /* \"#utility.yul\":1161:1290   */\n      swap2\n      swap1\n      pop\n      jump\t// out\n        /* \"#utility.yul\":1296:1604   */\n    tag_117:\n        /* \"#utility.yul\":1358:1362   */\n      0x00\n        /* \"#utility.yul\":1448:1466   */\n      0xffffffffffffffff\n        /* \"#utility.yul\":1440:1446   */\n      dup3\n        /* \"#utility.yul\":1437:1467   */\n      gt\n        /* \"#utility.yul\":1434:1490   */\n      iszero\n      tag_170\n      jumpi\n        /* \"#utility.yul\":1470:1488   */\n      tag_171\n      tag_114\n      jump\t// in\n    tag_171:\n        /* \"#utility.yul\":1434:1490   */\n    tag_170:\n        /* \"#utility.yul\":1508:1537   */\n      tag_172\n        /* \"#utility.yul\":1530:1536   */\n      dup3\n        /* \"#utility.yul\":1508:1537   */\n      tag_113\n      jump\t// in\n    tag_172:\n        /* \"#utility.yul\":1500:1537   */\n      swap1\n      pop\n        /* \"#utility.yul\":1592:1596   */\n      0x20\n        /* \"#utility.yul\":1586:1590   */\n      dup2\n        /* \"#utility.yul\":1582:1597   */\n      add\n        /* \"#utility.yul\":1574:1597   */\n      swap1\n      pop\n        /* \"#utility.yul\":1296:1604   */\n      swap2\n      swap1\n      pop\n      jump\t// out\n        /* \"#utility.yul\":1610:1756   */\n    tag_118:\n        /* \"#utility.yul\":1707:1713   */\n      dup3\n        /* \"#utility.yul\":1702:1705   */\n      dup2\n        /* \"#utility.yul\":1697:1700   */\n      dup4\n        /* \"#utility.yul\":1684:1714   */\n      calldatacopy\n        /* \"#utility.yul\":1748:1749   */\n      0x00\n        /* \"#utility.yul\":1739:1745   */\n      dup4\n        /* \"#utility.yul\":1734:1737   */\n      dup4\n        /* \"#utility.yul\":1730:1746   */\n      add\n        /* \"#utility.yul\":1723:1750   */\n      mstore\n        /* \"#utility.yul\":1610:1756   */\n      pop\n      pop\n      pop\n      jump\t// out\n        /* \"#utility.yul\":1762:2187   */\n    tag_119:\n        /* \"#utility.yul\":1840:1845   */\n      0x00\n        /* \"#utility.yul\":1865:1931   */\n      tag_175\n        /* \"#utility.yul\":1881:1930   */\n      tag_176\n        /* \"#utility.yul\":1923:1929   */\n      dup5\n        /* \"#utility.yul\":1881:1930   */\n      tag_117\n      jump\t// in\n    tag_176:\n        /* \"#utility.yul\":1865:1931   */\n      tag_116\n      jump\t// in\n    tag_175:\n        /* \"#utility.yul\":1856:1931   */\n      swap1\n      pop\n        /* \"#utility.yul\":1954:1960   */\n      dup3\n        /* \"#utility.yul\":1947:1952   */\n      dup2\n        /* \"#utility.yul\":1940:1961   */\n      mstore\n        /* \"#utility.yul\":1992:1996   */\n      0x20\n        /* \"#utility.yul\":1985:1990   */\n      dup2\n        /* \"#utility.yul\":1981:1997   */\n      add\n        /* \"#utility.yul\":2030:2033   */\n      dup5\n        /* \"#utility.yul\":2021:2027   */\n      dup5\n        /* \"#utility.yul\":2016:2019   */\n      dup5\n        /* \"#utility.yul\":2012:2028   */\n      add\n        /* \"#utility.yul\":2009:2034   */\n      gt\n        /* \"#utility.yul\":2006:2118   */\n      iszero\n      tag_177\n      jumpi\n        /* \"#utility.yul\":2037:2116   */\n      tag_178\n      tag_112\n      jump\t// in\n    tag_178:\n        /* \"#utility.yul\":2006:2118   */\n    tag_177:\n        /* \"#utility.yul\":2127:2181   */\n      tag_179\n        /* \"#utility.yul\":2174:2180   */\n      dup5\n        /* \"#utility.yul\":2169:2172   */\n      dup3\n        /* \"#utility.yul\":2164:2167   */\n      dup6\n        /* \"#utility.yul\":2127:2181   */\n      tag_118\n      jump\t// in\n    tag_179:\n        /* \"#utility.yul\":1846:2187   */\n      pop\n        /* \"#utility.yul\":1762:2187   */\n      swap4\n      swap3\n      pop\n      pop\n      pop\n      jump\t// out\n        /* \"#utility.yul\":2207:2547   */\n    tag_120:\n        /* \"#utility.yul\":2263:2268   */\n      0x00\n        /* \"#utility.yul\":2312:2315   */\n      dup3\n        /* \"#utility.yul\":2305:2309   */\n      0x1f\n        /* \"#utility.yul\":2297:2303   */\n      dup4\n        /* \"#utility.yul\":2293:2310   */\n      add\n        /* \"#utility.yul\":2289:2316   */\n      slt\n        /* \"#utility.yul\":2279:2401   */\n      tag_181\n      jumpi\n        /* \"#utility.yul\":2320:2399   */\n      tag_182\n      tag_111\n      jump\t// in\n    tag_182:\n        /* \"#utility.yul\":2279:2401   */\n    tag_181:\n        /* \"#utility.yul\":2437:2443   */\n      dup2\n        /* \"#utility.yul\":2424:2444   */\n      calldataload\n        /* \"#utility.yul\":2462:2541   */\n      tag_183\n        /* \"#utility.yul\":2537:2540   */\n      dup5\n        /* \"#utility.yul\":2529:2535   */\n      dup3\n        /* \"#utility.yul\":2522:2526   */\n      0x20\n        /* \"#utility.yul\":2514:2520   */\n      dup7\n        /* \"#utility.yul\":2510:2527   */\n      add\n        /* \"#utility.yul\":2462:2541   */\n      tag_119\n      jump\t// in\n    tag_183:\n        /* \"#utility.yul\":2453:2541   */\n      swap2\n      pop\n        /* \"#utility.yul\":2269:2547   */\n      pop\n        /* \"#utility.yul\":2207:2547   */\n      swap3\n      swap2\n      pop\n      pop\n      jump\t// out\n        /* \"#utility.yul\":2553:3062   */\n    tag_10:\n        /* \"#utility.yul\":2622:2628   */\n      0x00\n        /* \"#utility.yul\":2671:2673   */\n      0x20\n        /* \"#utility.yul\":2659:2668   */\n      dup3\n        /* \"#utility.yul\":2650:2657   */\n      dup5\n        /* \"#utility.yul\":2646:2669   */\n      sub\n        /* \"#utility.yul\":2642:2674   */\n      slt\n        /* \"#utility.yul\":2639:2758   */\n      iszero\n      tag_185\n      jumpi\n        /* \"#utility.yul\":2677:2756   */\n      tag_186\n      tag_109\n      jump\t// in\n    tag_186:\n        /* \"#utility.yul\":2639:2758   */\n    tag_185:\n        /* \"#utility.yul\":2825:2826   */\n      0x00\n        /* \"#utility.yul\":2814:2823   */\n      dup3\n        /* \"#utility.yul\":2810:2827   */\n      add\n        /* \"#utility.yul\":2797:2828   */\n      calldataload\n        /* \"#utility.yul\":2855:2873   */\n      0xffffffffffffffff\n        /* \"#utility.yul\":2847:2853   */\n      dup2\n        /* \"#utility.yul\":2844:2874   */\n      gt\n        /* \"#utility.yul\":2841:2958   */\n      iszero\n      tag_187\n      jumpi\n        /* \"#utility.yul\":2877:2956   */\n      tag_188\n      tag_110\n      jump\t// in\n    tag_188:\n        /* \"#utility.yul\":2841:2958   */\n    tag_187:\n        /* \"#utility.yul\":2982:3045   */\n      tag_189\n        /* \"#utility.yul\":3037:3044   */\n      dup5\n        /* \"#utility.yul\":3028:3034   */\n      dup3\n        /* \"#utility.yul\":3017:3026   */\n      dup6\n        /* \"#utility.yul\":3013:3035   */\n      add\n        /* \"#utility.yul\":2982:3045   */\n      tag_120\n      jump\t// in\n    tag_189:\n        /* \"#utility.yul\":2972:3045   */\n      swap2\n      pop\n        /* \"#utility.yul\":2768:3055   */\n      pop\n        /* \"#utility.yul\":2553:3062   */\n      swap3\n      swap2\n      pop\n      pop\n      jump\t// out\n        /* \"#utility.yul\":3068:3167   */\n    tag_121:\n        /* \"#utility.yul\":3120:3126   */\n      0x00\n        /* \"#utility.yul\":3154:3159   */\n      dup2\n        /* \"#utility.yul\":3148:3160   */\n      mload\n        /* \"#utility.yul\":3138:3160   */\n      swap1\n      pop\n        /* \"#utility.yul\":3068:3167   */\n      swap2\n      swap1\n      pop\n      jump\t// out\n        /* \"#utility.yul\":3173:3342   */\n    tag_122:\n        /* \"#utility.yul\":3257:3268   */\n      0x00\n        /* \"#utility.yul\":3291:3297   */\n      dup3\n        /* \"#utility.yul\":3286:3289   */\n      dup3\n        /* \"#utility.yul\":3279:3298   */\n      mstore\n        /* \"#utility.yul\":3331:3335   */\n      0x20\n        /* \"#utility.yul\":3326:3329   */\n      dup3\n        /* \"#utility.yul\":3322:3336   */\n      add\n        /* \"#utility.yul\":3307:3336   */\n      swap1\n      pop\n        /* \"#utility.yul\":3173:3342   */\n      swap3\n      swap2\n      pop\n      pop\n      jump\t// out\n        /* \"#utility.yul\":3348:3594   */\n    tag_123:\n        /* \"#utility.yul\":3429:3430   */\n      0x00\n        /* \"#utility.yul\":3439:3552   */\n    tag_193:\n        /* \"#utility.yul\":3453:3459   */\n      dup4\n        /* \"#utility.yul\":3450:3451   */\n      dup2\n        /* \"#utility.yul\":3447:3460   */\n      lt\n        /* \"#utility.yul\":3439:3552   */\n      iszero\n      tag_195\n      jumpi\n        /* \"#utility.yul\":3538:3539   */\n      dup1\n        /* \"#utility.yul\":3533:3536   */\n      dup3\n        /* \"#utility.yul\":3529:3540   */\n      add\n        /* \"#utility.yul\":3523:3541   */\n      mload\n        /* \"#utility.yul\":3519:3520   */\n      dup2\n        /* \"#utility.yul\":3514:3517   */\n      dup5\n        /* \"#utility.yul\":3510:3521   */\n      add\n        /* \"#utility.yul\":3503:3542   */\n      mstore\n        /* \"#utility.yul\":3475:3477   */\n      0x20\n        /* \"#utility.yul\":3472:3473   */\n      dup2\n        /* \"#utility.yul\":3468:3478   */\n      add\n        /* \"#utility.yul\":3463:3478   */\n      swap1\n      pop\n        /* \"#utility.yul\":3439:3552   */\n      jump(tag_193)\n    tag_195:\n        /* \"#utility.yul\":3586:3587   */\n      0x00\n        /* \"#utility.yul\":3577:3583   */\n      dup5\n        /* \"#utility.yul\":3572:3575   */\n      dup5\n        /* \"#utility.yul\":3568:3584   */\n      add\n        /* \"#utility.yul\":3561:3588   */\n      mstore\n        /* \"#utility.yul\":3410:3594   */\n      pop\n        /* \"#utility.yul\":3348:3594   */\n      pop\n      pop\n      pop\n      jump\t// out\n        /* \"#utility.yul\":3600:3977   */\n    tag_124:\n        /* \"#utility.yul\":3688:3691   */\n      0x00\n        /* \"#utility.yul\":3716:3755   */\n      tag_197\n        /* \"#utility.yul\":3749:3754   */\n      dup3\n        /* \"#utility.yul\":3716:3755   */\n      tag_121\n      jump\t// in\n    tag_197:\n        /* \"#utility.yul\":3771:3842   */\n      tag_198\n        /* \"#utility.yul\":3835:3841   */\n      dup2\n        /* \"#utility.yul\":3830:3833   */\n      dup6\n        /* \"#utility.yul\":3771:3842   */\n      tag_122\n      jump\t// in\n    tag_198:\n        /* \"#utility.yul\":3764:3842   */\n      swap4\n      pop\n        /* \"#utility.yul\":3851:3916   */\n      tag_199\n        /* \"#utility.yul\":3909:3915   */\n      dup2\n        /* \"#utility.yul\":3904:3907   */\n      dup6\n        /* \"#utility.yul\":3897:3901   */\n      0x20\n        /* \"#utility.yul\":3890:3895   */\n      dup7\n        /* \"#utility.yul\":3886:3902   */\n      add\n        /* \"#utility.yul\":3851:3916   */\n      tag_123\n      jump\t// in\n    tag_199:\n        /* \"#utility.yul\":3941:3970   */\n      tag_200\n        /* \"#utility.yul\":3963:3969   */\n      dup2\n        /* \"#utility.yul\":3941:3970   */\n      tag_113\n      jump\t// in\n    tag_200:\n        /* \"#utility.yul\":3936:3939   */\n      dup5\n        /* \"#utility.yul\":3932:3971   */\n      add\n        /* \"#utility.yul\":3925:3971   */\n      swap2\n      pop\n        /* \"#utility.yul\":3692:3977   */\n      pop\n        /* \"#utility.yul\":3600:3977   */\n      swap3\n      swap2\n      pop\n      pop\n      jump\t// out\n        /* \"#utility.yul\":3983:4109   */\n    tag_125:\n        /* \"#utility.yul\":4020:4027   */\n      0x00\n        /* \"#utility.yul\":4060:4102   */\n      0xffffffffffffffffffffffffffffffffffffffff\n        /* \"#utility.yul\":4053:4058   */\n      dup3\n        /* \"#utility.yul\":4049:4103   */\n      and\n        /* \"#utility.yul\":4038:4103   */\n      swap1\n      pop\n        /* \"#utility.yul\":3983:4109   */\n      swap2\n      swap1\n      pop\n      jump\t// out\n        /* \"#utility.yul\":4115:4211   */\n    tag_126:\n        /* \"#utility.yul\":4152:4159   */\n      0x00\n        /* \"#utility.yul\":4181:4205   */\n      tag_203\n        /* \"#utility.yul\":4199:4204   */\n      dup3\n        /* \"#utility.yul\":4181:4205   */\n      tag_125\n      jump\t// in\n    tag_203:\n        /* \"#utility.yul\":4170:4205   */\n      swap1\n      pop\n        /* \"#utility.yul\":4115:4211   */\n      swap2\n      swap1\n      pop\n      jump\t// out\n        /* \"#utility.yul\":4217:4335   */\n    tag_127:\n        /* \"#utility.yul\":4304:4328   */\n      tag_205\n        /* \"#utility.yul\":4322:4327   */\n      dup2\n        /* \"#utility.yul\":4304:4328   */\n      tag_126\n      jump\t// in\n    tag_205:\n        /* \"#utility.yul\":4299:4302   */\n      dup3\n        /* \"#utility.yul\":4292:4329   */\n      mstore\n        /* \"#utility.yul\":4217:4335   */\n      pop\n      pop\n      jump\t// out\n        /* \"#utility.yul\":4341:4418   */\n    tag_128:\n        /* \"#utility.yul\":4378:4385   */\n      0x00\n        /* \"#utility.yul\":4407:4412   */\n      dup2\n        /* \"#utility.yul\":4396:4412   */\n      swap1\n      pop\n        /* \"#utility.yul\":4341:4418   */\n      swap2\n      swap1\n      pop\n      jump\t// out\n        /* \"#utility.yul\":4424:4542   */\n    tag_129:\n        /* \"#utility.yul\":4511:4535   */\n      tag_208\n        /* \"#utility.yul\":4529:4534   */\n      dup2\n        /* \"#utility.yul\":4511:4535   */\n      tag_128\n      jump\t// in\n    tag_208:\n        /* \"#utility.yul\":4506:4509   */\n      dup3\n        /* \"#utility.yul\":4499:4536   */\n      mstore\n        /* \"#utility.yul\":4424:4542   */\n      pop\n      pop\n      jump\t// out\n        /* \"#utility.yul\":4548:5485   */\n    tag_13:\n        /* \"#utility.yul\":4813:4817   */\n      0x00\n        /* \"#utility.yul\":4851:4854   */\n      0xa0\n        /* \"#utility.yul\":4840:4849   */\n      dup3\n        /* \"#utility.yul\":4836:4855   */\n      add\n        /* \"#utility.yul\":4828:4855   */\n      swap1\n      pop\n        /* \"#utility.yul\":4901:4910   */\n      dup2\n        /* \"#utility.yul\":4895:4899   */\n      dup2\n        /* \"#utility.yul\":4891:4911   */\n      sub\n        /* \"#utility.yul\":4887:4888   */\n      0x00\n        /* \"#utility.yul\":4876:4885   */\n      dup4\n        /* \"#utility.yul\":4872:4889   */\n      add\n        /* \"#utility.yul\":4865:4912   */\n      mstore\n        /* \"#utility.yul\":4929:5007   */\n      tag_210\n        /* \"#utility.yul\":5002:5006   */\n      dup2\n        /* \"#utility.yul\":4993:4999   */\n      dup9\n        /* \"#utility.yul\":4929:5007   */\n      tag_124\n      jump\t// in\n    tag_210:\n        /* \"#utility.yul\":4921:5007   */\n      swap1\n      pop\n        /* \"#utility.yul\":5054:5063   */\n      dup2\n        /* \"#utility.yul\":5048:5052   */\n      dup2\n        /* \"#utility.yul\":5044:5064   */\n      sub\n        /* \"#utility.yul\":5039:5041   */\n      0x20\n        /* \"#utility.yul\":5028:5037   */\n      dup4\n        /* \"#utility.yul\":5024:5042   */\n      add\n        /* \"#utility.yul\":5017:5065   */\n      mstore\n        /* \"#utility.yul\":5082:5160   */\n      tag_211\n        /* \"#utility.yul\":5155:5159   */\n      dup2\n        /* \"#utility.yul\":5146:5152   */\n      dup8\n        /* \"#utility.yul\":5082:5160   */\n      tag_124\n      jump\t// in\n    tag_211:\n        /* \"#utility.yul\":5074:5160   */\n      swap1\n      pop\n        /* \"#utility.yul\":5207:5216   */\n      dup2\n        /* \"#utility.yul\":5201:5205   */\n      dup2\n        /* \"#utility.yul\":5197:5217   */\n      sub\n        /* \"#utility.yul\":5192:5194   */\n      0x40\n        /* \"#utility.yul\":5181:5190   */\n      dup4\n        /* \"#utility.yul\":5177:5195   */\n      add\n        /* \"#utility.yul\":5170:5218   */\n      mstore\n        /* \"#utility.yul\":5235:5313   */\n      tag_212\n        /* \"#utility.yul\":5308:5312   */\n      dup2\n        /* \"#utility.yul\":5299:5305   */\n      dup7\n        /* \"#utility.yul\":5235:5313   */\n      tag_124\n      jump\t// in\n    tag_212:\n        /* \"#utility.yul\":5227:5313   */\n      swap1\n      pop\n        /* \"#utility.yul\":5323:5395   */\n      tag_213\n        /* \"#utility.yul\":5391:5393   */\n      0x60\n        /* \"#utility.yul\":5380:5389   */\n      dup4\n        /* \"#utility.yul\":5376:5394   */\n      add\n        /* \"#utility.yul\":5367:5373   */\n      dup6\n        /* \"#utility.yul\":5323:5395   */\n      tag_127\n      jump\t// in\n    tag_213:\n        /* \"#utility.yul\":5405:5478   */\n      tag_214\n        /* \"#utility.yul\":5473:5476   */\n      0x80\n        /* \"#utility.yul\":5462:5471   */\n      dup4\n        /* \"#utility.yul\":5458:5477   */\n      add\n        /* \"#utility.yul\":5449:5455   */\n      dup5\n        /* \"#utility.yul\":5405:5478   */\n      tag_129\n      jump\t// in\n    tag_214:\n        /* \"#utility.yul\":4548:5485   */\n      swap7\n      swap6\n      pop\n      pop\n      pop\n      pop\n      pop\n      pop\n      jump\t// out\n        /* \"#utility.yul\":5491:6650   */\n    tag_16:\n        /* \"#utility.yul\":5598:5604   */\n      0x00\n        /* \"#utility.yul\":5606:5612   */\n      dup1\n        /* \"#utility.yul\":5614:5620   */\n      0x00\n        /* \"#utility.yul\":5663:5665   */\n      0x60\n        /* \"#utility.yul\":5651:5660   */\n      dup5\n        /* \"#utility.yul\":5642:5649   */\n      dup7\n        /* \"#utility.yul\":5638:5661   */\n      sub\n        /* \"#utility.yul\":5634:5666   */\n      slt\n        /* \"#utility.yul\":5631:5750   */\n      iszero\n      tag_216\n      jumpi\n        /* \"#utility.yul\":5669:5748   */\n      tag_217\n      tag_109\n      jump\t// in\n    tag_217:\n        /* \"#utility.yul\":5631:5750   */\n    tag_216:\n        /* \"#utility.yul\":5817:5818   */\n      0x00\n        /* \"#utility.yul\":5806:5815   */\n      dup5\n        /* \"#utility.yul\":5802:5819   */\n      add\n        /* \"#utility.yul\":5789:5820   */\n      calldataload\n        /* \"#utility.yul\":5847:5865   */\n      0xffffffffffffffff\n        /* \"#utility.yul\":5839:5845   */\n      dup2\n        /* \"#utility.yul\":5836:5866   */\n      gt\n        /* \"#utility.yul\":5833:5950   */\n      iszero\n      tag_218\n      jumpi\n        /* \"#utility.yul\":5869:5948   */\n      tag_219\n      tag_110\n      jump\t// in\n    tag_219:\n        /* \"#utility.yul\":5833:5950   */\n    tag_218:\n        /* \"#utility.yul\":5974:6037   */\n      tag_220\n        /* \"#utility.yul\":6029:6036   */\n      dup7\n        /* \"#utility.yul\":6020:6026   */\n      dup3\n        /* \"#utility.yul\":6009:6018   */\n      dup8\n        /* \"#utility.yul\":6005:6027   */\n      add\n        /* \"#utility.yul\":5974:6037   */\n      tag_120\n      jump\t// in\n    tag_220:\n        /* \"#utility.yul\":5964:6037   */\n      swap4\n      pop\n        /* \"#utility.yul\":5760:6047   */\n      pop\n        /* \"#utility.yul\":6114:6116   */\n      0x20\n        /* \"#utility.yul\":6103:6112   */\n      dup5\n        /* \"#utility.yul\":6099:6117   */\n      add\n        /* \"#utility.yul\":6086:6118   */\n      calldataload\n        /* \"#utility.yul\":6145:6163   */\n      0xffffffffffffffff\n        /* \"#utility.yul\":6137:6143   */\n      dup2\n        /* \"#utility.yul\":6134:6164   */\n      gt\n        /* \"#utility.yul\":6131:6248   */\n      iszero\n      tag_221\n      jumpi\n        /* \"#utility.yul\":6167:6246   */\n      tag_222\n      tag_110\n      jump\t// in\n    tag_222:\n        /* \"#utility.yul\":6131:6248   */\n    tag_221:\n        /* \"#utility.yul\":6272:6335   */\n      tag_223\n        /* \"#utility.yul\":6327:6334   */\n      dup7\n        /* \"#utility.yul\":6318:6324   */\n      dup3\n        /* \"#utility.yul\":6307:6316   */\n      dup8\n        /* \"#utility.yul\":6303:6325   */\n      add\n        /* \"#utility.yul\":6272:6335   */\n      tag_120\n      jump\t// in\n    tag_223:\n        /* \"#utility.yul\":6262:6335   */\n      swap3\n      pop\n        /* \"#utility.yul\":6057:6345   */\n      pop\n        /* \"#utility.yul\":6412:6414   */\n      0x40\n        /* \"#utility.yul\":6401:6410   */\n      dup5\n        /* \"#utility.yul\":6397:6415   */\n      add\n        /* \"#utility.yul\":6384:6416   */\n      calldataload\n        /* \"#utility.yul\":6443:6461   */\n      0xffffffffffffffff\n        /* \"#utility.yul\":6435:6441   */\n      dup2\n        /* \"#utility.yul\":6432:6462   */\n      gt\n        /* \"#utility.yul\":6429:6546   */\n      iszero\n      tag_224\n      jumpi\n        /* \"#utility.yul\":6465:6544   */\n      tag_225\n      tag_110\n      jump\t// in\n    tag_225:\n        /* \"#utility.yul\":6429:6546   */\n    tag_224:\n        /* \"#utility.yul\":6570:6633   */\n      tag_226\n        /* \"#utility.yul\":6625:6632   */\n      dup7\n        /* \"#utility.yul\":6616:6622   */\n      dup3\n        /* \"#utility.yul\":6605:6614   */\n      dup8\n        /* \"#utility.yul\":6601:6623   */\n      add\n        /* \"#utility.yul\":6570:6633   */\n      tag_120\n      jump\t// in\n    tag_226:\n        /* \"#utility.yul\":6560:6633   */\n      swap2\n      pop\n        /* \"#utility.yul\":6355:6643   */\n      pop\n        /* \"#utility.yul\":5491:6650   */\n      swap3\n      pop\n      swap3\n      pop\n      swap3\n      jump\t// out\n        /* \"#utility.yul\":6656:7490   */\n    tag_20:\n        /* \"#utility.yul\":6744:6750   */\n      0x00\n        /* \"#utility.yul\":6752:6758   */\n      dup1\n        /* \"#utility.yul\":6801:6803   */\n      0x40\n        /* \"#utility.yul\":6789:6798   */\n      dup4\n        /* \"#utility.yul\":6780:6787   */\n      dup6\n        /* \"#utility.yul\":6776:6799   */\n      sub\n        /* \"#utility.yul\":6772:6804   */\n      slt\n        /* \"#utility.yul\":6769:6888   */\n      iszero\n      tag_228\n      jumpi\n        /* \"#utility.yul\":6807:6886   */\n      tag_229\n      tag_109\n      jump\t// in\n    tag_229:\n        /* \"#utility.yul\":6769:6888   */\n    tag_228:\n        /* \"#utility.yul\":6955:6956   */\n      0x00\n        /* \"#utility.yul\":6944:6953   */\n      dup4\n        /* \"#utility.yul\":6940:6957   */\n      add\n        /* \"#utility.yul\":6927:6958   */\n      calldataload\n        /* \"#utility.yul\":6985:7003   */\n      0xffffffffffffffff\n        /* \"#utility.yul\":6977:6983   */\n      dup2\n        /* \"#utility.yul\":6974:7004   */\n      gt\n        /* \"#utility.yul\":6971:7088   */\n      iszero\n      tag_230\n      jumpi\n        /* \"#utility.yul\":7007:7086   */\n      tag_231\n      tag_110\n      jump\t// in\n    tag_231:\n        /* \"#utility.yul\":6971:7088   */\n    tag_230:\n        /* \"#utility.yul\":7112:7175   */\n      tag_232\n        /* \"#utility.yul\":7167:7174   */\n      dup6\n        /* \"#utility.yul\":7158:7164   */\n      dup3\n        /* \"#utility.yul\":7147:7156   */\n      dup7\n        /* \"#utility.yul\":7143:7165   */\n      add\n        /* \"#utility.yul\":7112:7175   */\n      tag_120\n      jump\t// in\n    tag_232:\n        /* \"#utility.yul\":7102:7175   */\n      swap3\n      pop\n        /* \"#utility.yul\":6898:7185   */\n      pop\n        /* \"#utility.yul\":7252:7254   */\n      0x20\n        /* \"#utility.yul\":7241:7250   */\n      dup4\n        /* \"#utility.yul\":7237:7255   */\n      add\n        /* \"#utility.yul\":7224:7256   */\n      calldataload\n        /* \"#utility.yul\":7283:7301   */\n      0xffffffffffffffff\n        /* \"#utility.yul\":7275:7281   */\n      dup2\n        /* \"#utility.yul\":7272:7302   */\n      gt\n        /* \"#utility.yul\":7269:7386   */\n      iszero\n      tag_233\n      jumpi\n        /* \"#utility.yul\":7305:7384   */\n      tag_234\n      tag_110\n      jump\t// in\n    tag_234:\n        /* \"#utility.yul\":7269:7386   */\n    tag_233:\n        /* \"#utility.yul\":7410:7473   */\n      tag_235\n        /* \"#utility.yul\":7465:7472   */\n      dup6\n        /* \"#utility.yul\":7456:7462   */\n      dup3\n        /* \"#utility.yul\":7445:7454   */\n      dup7\n        /* \"#utility.yul\":7441:7463   */\n      add\n        /* \"#utility.yul\":7410:7473   */\n      tag_120\n      jump\t// in\n    tag_235:\n        /* \"#utility.yul\":7400:7473   */\n      swap2\n      pop\n        /* \"#utility.yul\":7195:7483   */\n      pop\n        /* \"#utility.yul\":6656:7490   */\n      swap3\n      pop\n      swap3\n      swap1\n      pop\n      jump\t// out\n        /* \"#utility.yul\":7496:7618   */\n    tag_130:\n        /* \"#utility.yul\":7569:7593   */\n      tag_237\n        /* \"#utility.yul\":7587:7592   */\n      dup2\n        /* \"#utility.yul\":7569:7593   */\n      tag_128\n      jump\t// in\n    tag_237:\n        /* \"#utility.yul\":7562:7567   */\n      dup2\n        /* \"#utility.yul\":7559:7594   */\n      eq\n        /* \"#utility.yul\":7549:7612   */\n      tag_238\n      jumpi\n        /* \"#utility.yul\":7608:7609   */\n      0x00\n        /* \"#utility.yul\":7605:7606   */\n      dup1\n        /* \"#utility.yul\":7598:7610   */\n      revert\n        /* \"#utility.yul\":7549:7612   */\n    tag_238:\n        /* \"#utility.yul\":7496:7618   */\n      pop\n      jump\t// out\n        /* \"#utility.yul\":7624:7763   */\n    tag_131:\n        /* \"#utility.yul\":7670:7675   */\n      0x00\n        /* \"#utility.yul\":7708:7714   */\n      dup2\n        /* \"#utility.yul\":7695:7715   */\n      calldataload\n        /* \"#utility.yul\":7686:7715   */\n      swap1\n      pop\n        /* \"#utility.yul\":7724:7757   */\n      tag_240\n        /* \"#utility.yul\":7751:7756   */\n      dup2\n        /* \"#utility.yul\":7724:7757   */\n      tag_130\n      jump\t// in\n    tag_240:\n        /* \"#utility.yul\":7624:7763   */\n      swap3\n      swap2\n      pop\n      pop\n      jump\t// out\n        /* \"#utility.yul\":7769:8098   */\n    tag_24:\n        /* \"#utility.yul\":7828:7834   */\n      0x00\n        /* \"#utility.yul\":7877:7879   */\n      0x20\n        /* \"#utility.yul\":7865:7874   */\n      dup3\n        /* \"#utility.yul\":7856:7863   */\n      dup5\n        /* \"#utility.yul\":7852:7875   */\n      sub\n        /* \"#utility.yul\":7848:7880   */\n      slt\n        /* \"#utility.yul\":7845:7964   */\n      iszero\n      tag_242\n      jumpi\n        /* \"#utility.yul\":7883:7962   */\n      tag_243\n      tag_109\n      jump\t// in\n    tag_243:\n        /* \"#utility.yul\":7845:7964   */\n    tag_242:\n        /* \"#utility.yul\":8003:8004   */\n      0x00\n        /* \"#utility.yul\":8028:8081   */\n      tag_244\n        /* \"#utility.yul\":8073:8080   */\n      dup5\n        /* \"#utility.yul\":8064:8070   */\n      dup3\n        /* \"#utility.yul\":8053:8062   */\n      dup6\n        /* \"#utility.yul\":8049:8071   */\n      add\n        /* \"#utility.yul\":8028:8081   */\n      tag_131\n      jump\t// in\n    tag_244:\n        /* \"#utility.yul\":8018:8081   */\n      swap2\n      pop\n        /* \"#utility.yul\":7974:8091   */\n      pop\n        /* \"#utility.yul\":7769:8098   */\n      swap3\n      swap2\n      pop\n      pop\n      jump\t// out\n        /* \"#utility.yul\":8104:8417   */\n    tag_27:\n        /* \"#utility.yul\":8217:8221   */\n      0x00\n        /* \"#utility.yul\":8255:8257   */\n      0x20\n        /* \"#utility.yul\":8244:8253   */\n      dup3\n        /* \"#utility.yul\":8240:8258   */\n      add\n        /* \"#utility.yul\":8232:8258   */\n      swap1\n      pop\n        /* \"#utility.yul\":8304:8313   */\n      dup2\n        /* \"#utility.yul\":8298:8302   */\n      dup2\n        /* \"#utility.yul\":8294:8314   */\n      sub\n        /* \"#utility.yul\":8290:8291   */\n      0x00\n        /* \"#utility.yul\":8279:8288   */\n      dup4\n        /* \"#utility.yul\":8275:8292   */\n      add\n        /* \"#utility.yul\":8268:8315   */\n      mstore\n        /* \"#utility.yul\":8332:8410   */\n      tag_246\n        /* \"#utility.yul\":8405:8409   */\n      dup2\n        /* \"#utility.yul\":8396:8402   */\n      dup5\n        /* \"#utility.yul\":8332:8410   */\n      tag_124\n      jump\t// in\n    tag_246:\n        /* \"#utility.yul\":8324:8410   */\n      swap1\n      pop\n        /* \"#utility.yul\":8104:8417   */\n      swap3\n      swap2\n      pop\n      pop\n      jump\t// out\n        /* \"#utility.yul\":8423:9562   */\n    tag_32:\n        /* \"#utility.yul\":8736:8740   */\n      0x00\n        /* \"#utility.yul\":8774:8777   */\n      0xc0\n        /* \"#utility.yul\":8763:8772   */\n      dup3\n        /* \"#utility.yul\":8759:8778   */\n      add\n        /* \"#utility.yul\":8751:8778   */\n      swap1\n      pop\n        /* \"#utility.yul\":8824:8833   */\n      dup2\n        /* \"#utility.yul\":8818:8822   */\n      dup2\n        /* \"#utility.yul\":8814:8834   */\n      sub\n        /* \"#utility.yul\":8810:8811   */\n      0x00\n        /* \"#utility.yul\":8799:8808   */\n      dup4\n        /* \"#utility.yul\":8795:8812   */\n      add\n        /* \"#utility.yul\":8788:8835   */\n      mstore\n        /* \"#utility.yul\":8852:8930   */\n      tag_248\n        /* \"#utility.yul\":8925:8929   */\n      dup2\n        /* \"#utility.yul\":8916:8922   */\n      dup10\n        /* \"#utility.yul\":8852:8930   */\n      tag_124\n      jump\t// in\n    tag_248:\n        /* \"#utility.yul\":8844:8930   */\n      swap1\n      pop\n        /* \"#utility.yul\":8977:8986   */\n      dup2\n        /* \"#utility.yul\":8971:8975   */\n      dup2\n        /* \"#utility.yul\":8967:8987   */\n      sub\n        /* \"#utility.yul\":8962:8964   */\n      0x20\n        /* \"#utility.yul\":8951:8960   */\n      dup4\n        /* \"#utility.yul\":8947:8965   */\n      add\n        /* \"#utility.yul\":8940:8988   */\n      mstore\n        /* \"#utility.yul\":9005:9083   */\n      tag_249\n        /* \"#utility.yul\":9078:9082   */\n      dup2\n        /* \"#utility.yul\":9069:9075   */\n      dup9\n        /* \"#utility.yul\":9005:9083   */\n      tag_124\n      jump\t// in\n    tag_249:\n        /* \"#utility.yul\":8997:9083   */\n      swap1\n      pop\n        /* \"#utility.yul\":9130:9139   */\n      dup2\n        /* \"#utility.yul\":9124:9128   */\n      dup2\n        /* \"#utility.yul\":9120:9140   */\n      sub\n        /* \"#utility.yul\":9115:9117   */\n      0x40\n        /* \"#utility.yul\":9104:9113   */\n      dup4\n        /* \"#utility.yul\":9100:9118   */\n      add\n        /* \"#utility.yul\":9093:9141   */\n      mstore\n        /* \"#utility.yul\":9158:9236   */\n      tag_250\n        /* \"#utility.yul\":9231:9235   */\n      dup2\n        /* \"#utility.yul\":9222:9228   */\n      dup8\n        /* \"#utility.yul\":9158:9236   */\n      tag_124\n      jump\t// in\n    tag_250:\n        /* \"#utility.yul\":9150:9236   */\n      swap1\n      pop\n        /* \"#utility.yul\":9283:9292   */\n      dup2\n        /* \"#utility.yul\":9277:9281   */\n      dup2\n        /* \"#utility.yul\":9273:9293   */\n      sub\n        /* \"#utility.yul\":9268:9270   */\n      0x60\n        /* \"#utility.yul\":9257:9266   */\n      dup4\n        /* \"#utility.yul\":9253:9271   */\n      add\n        /* \"#utility.yul\":9246:9294   */\n      mstore\n        /* \"#utility.yul\":9311:9389   */\n      tag_251\n        /* \"#utility.yul\":9384:9388   */\n      dup2\n        /* \"#utility.yul\":9375:9381   */\n      dup7\n        /* \"#utility.yul\":9311:9389   */\n      tag_124\n      jump\t// in\n    tag_251:\n        /* \"#utility.yul\":9303:9389   */\n      swap1\n      pop\n        /* \"#utility.yul\":9399:9472   */\n      tag_252\n        /* \"#utility.yul\":9467:9470   */\n      0x80\n        /* \"#utility.yul\":9456:9465   */\n      dup4\n        /* \"#utility.yul\":9452:9471   */\n      add\n        /* \"#utility.yul\":9443:9449   */\n      dup6\n        /* \"#utility.yul\":9399:9472   */\n      tag_127\n      jump\t// in\n    tag_252:\n        /* \"#utility.yul\":9482:9555   */\n      tag_253\n        /* \"#utility.yul\":9550:9553   */\n      0xa0\n        /* \"#utility.yul\":9539:9548   */\n      dup4\n        /* \"#utility.yul\":9535:9554   */\n      add\n        /* \"#utility.yul\":9526:9532   */\n      dup5\n        /* \"#utility.yul\":9482:9555   */\n      tag_129\n      jump\t// in\n    tag_253:\n        /* \"#utility.yul\":8423:9562   */\n      swap8\n      swap7\n      pop\n      pop\n      pop\n      pop\n      pop\n      pop\n      pop\n      jump\t// out\n        /* \"#utility.yul\":9568:9716   */\n    tag_132:\n        /* \"#utility.yul\":9670:9681   */\n      0x00\n        /* \"#utility.yul\":9707:9710   */\n      dup2\n        /* \"#utility.yul\":9692:9710   */\n      swap1\n      pop\n        /* \"#utility.yul\":9568:9716   */\n      swap3\n      swap2\n      pop\n      pop\n      jump\t// out\n        /* \"#utility.yul\":9722:10112   */\n    tag_133:\n        /* \"#utility.yul\":9828:9831   */\n      0x00\n        /* \"#utility.yul\":9856:9895   */\n      tag_256\n        /* \"#utility.yul\":9889:9894   */\n      dup3\n        /* \"#utility.yul\":9856:9895   */\n      tag_121\n      jump\t// in\n    tag_256:\n        /* \"#utility.yul\":9911:10000   */\n      tag_257\n        /* \"#utility.yul\":9993:9999   */\n      dup2\n        /* \"#utility.yul\":9988:9991   */\n      dup6\n        /* \"#utility.yul\":9911:10000   */\n      tag_132\n      jump\t// in\n    tag_257:\n        /* \"#utility.yul\":9904:10000   */\n      swap4\n      pop\n        /* \"#utility.yul\":10009:10074   */\n      tag_258\n        /* \"#utility.yul\":10067:10073   */\n      dup2\n        /* \"#utility.yul\":10062:10065   */\n      dup6\n        /* \"#utility.yul\":10055:10059   */\n      0x20\n        /* \"#utility.yul\":10048:10053   */\n      dup7\n        /* \"#utility.yul\":10044:10060   */\n      add\n        /* \"#utility.yul\":10009:10074   */\n      tag_123\n      jump\t// in\n    tag_258:\n        /* \"#utility.yul\":10099:10105   */\n      dup1\n        /* \"#utility.yul\":10094:10097   */\n      dup5\n        /* \"#utility.yul\":10090:10106   */\n      add\n        /* \"#utility.yul\":10083:10106   */\n      swap2\n      pop\n        /* \"#utility.yul\":9832:10112   */\n      pop\n        /* \"#utility.yul\":9722:10112   */\n      swap3\n      swap2\n      pop\n      pop\n      jump\t// out\n        /* \"#utility.yul\":10118:10393   */\n    tag_35:\n        /* \"#utility.yul\":10250:10253   */\n      0x00\n        /* \"#utility.yul\":10272:10367   */\n      tag_260\n        /* \"#utility.yul\":10363:10366   */\n      dup3\n        /* \"#utility.yul\":10354:10360   */\n      dup5\n        /* \"#utility.yul\":10272:10367   */\n      tag_133\n      jump\t// in\n    tag_260:\n        /* \"#utility.yul\":10265:10367   */\n      swap2\n      pop\n        /* \"#utility.yul\":10384:10387   */\n      dup2\n        /* \"#utility.yul\":10377:10387   */\n      swap1\n      pop\n        /* \"#utility.yul\":10118:10393   */\n      swap3\n      swap2\n      pop\n      pop\n      jump\t// out\n        /* \"#utility.yul\":10399:10579   */\n    tag_134:\n        /* \"#utility.yul\":10447:10524   */\n      0x4e487b7100000000000000000000000000000000000000000000000000000000\n        /* \"#utility.yul\":10444:10445   */\n      0x00\n        /* \"#utility.yul\":10437:10525   */\n      mstore\n        /* \"#utility.yul\":10544:10548   */\n      0x22\n        /* \"#utility.yul\":10541:10542   */\n      0x04\n        /* \"#utility.yul\":10534:10549   */\n      mstore\n        /* \"#utility.yul\":10568:10572   */\n      0x24\n        /* \"#utility.yul\":10565:10566   */\n      0x00\n        /* \"#utility.yul\":10558:10573   */\n      revert\n        /* \"#utility.yul\":10585:10905   */\n    tag_37:\n        /* \"#utility.yul\":10629:10635   */\n      0x00\n        /* \"#utility.yul\":10666:10667   */\n      0x02\n        /* \"#utility.yul\":10660:10664   */\n      dup3\n        /* \"#utility.yul\":10656:10668   */\n      div\n        /* \"#utility.yul\":10646:10668   */\n      swap1\n      pop\n        /* \"#utility.yul\":10713:10714   */\n      0x01\n        /* \"#utility.yul\":10707:10711   */\n      dup3\n        /* \"#utility.yul\":10703:10715   */\n      and\n        /* \"#utility.yul\":10734:10752   */\n      dup1\n        /* \"#utility.yul\":10724:10805   */\n      tag_263\n      jumpi\n        /* \"#utility.yul\":10790:10794   */\n      0x7f\n        /* \"#utility.yul\":10782:10788   */\n      dup3\n        /* \"#utility.yul\":10778:10795   */\n      and\n        /* \"#utility.yul\":10768:10795   */\n      swap2\n      pop\n        /* \"#utility.yul\":10724:10805   */\n    tag_263:\n        /* \"#utility.yul\":10852:10854   */\n      0x20\n        /* \"#utility.yul\":10844:10850   */\n      dup3\n        /* \"#utility.yul\":10841:10855   */\n      lt\n        /* \"#utility.yul\":10821:10839   */\n      dup2\n        /* \"#utility.yul\":10818:10856   */\n      sub\n        /* \"#utility.yul\":10815:10899   */\n      tag_264\n      jumpi\n        /* \"#utility.yul\":10871:10889   */\n      tag_265\n      tag_134\n      jump\t// in\n    tag_265:\n        /* \"#utility.yul\":10815:10899   */\n    tag_264:\n        /* \"#utility.yul\":10636:10905   */\n      pop\n        /* \"#utility.yul\":10585:10905   */\n      swap2\n      swap1\n      pop\n      jump\t// out\n        /* \"#utility.yul\":10911:11079   */\n    tag_135:\n        /* \"#utility.yul\":11051:11071   */\n      0x46495220616c7265616479206578697374730000000000000000000000000000\n        /* \"#utility.yul\":11047:11048   */\n      0x00\n        /* \"#utility.yul\":11039:11045   */\n      dup3\n        /* \"#utility.yul\":11035:11049   */\n      add\n        /* \"#utility.yul\":11028:11072   */\n      mstore\n        /* \"#utility.yul\":10911:11079   */\n      pop\n      jump\t// out\n        /* \"#utility.yul\":11085:11451   */\n    tag_136:\n        /* \"#utility.yul\":11227:11230   */\n      0x00\n        /* \"#utility.yul\":11248:11315   */\n      tag_268\n        /* \"#utility.yul\":11312:11314   */\n      0x12\n        /* \"#utility.yul\":11307:11310   */\n      dup4\n        /* \"#utility.yul\":11248:11315   */\n      tag_122\n      jump\t// in\n    tag_268:\n        /* \"#utility.yul\":11241:11315   */\n      swap2\n      pop\n        /* \"#utility.yul\":11324:11417   */\n      tag_269\n        /* \"#utility.yul\":11413:11416   */\n      dup3\n        /* \"#utility.yul\":11324:11417   */\n      tag_135\n      jump\t// in\n    tag_269:\n        /* \"#utility.yul\":11442:11444   */\n      0x20\n        /* \"#utility.yul\":11437:11440   */\n      dup3\n        /* \"#utility.yul\":11433:11445   */\n      add\n        /* \"#utility.yul\":11426:11445   */\n      swap1\n      pop\n        /* \"#utility.yul\":11085:11451   */\n      swap2\n      swap1\n      pop\n      jump\t// out\n        /* \"#utility.yul\":11457:11876   */\n    tag_61:\n        /* \"#utility.yul\":11623:11627   */\n      0x00\n        /* \"#utility.yul\":11661:11663   */\n      0x20\n        /* \"#utility.yul\":11650:11659   */\n      dup3\n        /* \"#utility.yul\":11646:11664   */\n      add\n        /* \"#utility.yul\":11638:11664   */\n      swap1\n      pop\n        /* \"#utility.yul\":11710:11719   */\n      dup2\n        /* \"#utility.yul\":11704:11708   */\n      dup2\n        /* \"#utility.yul\":11700:11720   */\n      sub\n        /* \"#utility.yul\":11696:11697   */\n      0x00\n        /* \"#utility.yul\":11685:11694   */\n      dup4\n        /* \"#utility.yul\":11681:11698   */\n      add\n        /* \"#utility.yul\":11674:11721   */\n      mstore\n        /* \"#utility.yul\":11738:11869   */\n      tag_271\n        /* \"#utility.yul\":11864:11868   */\n      dup2\n        /* \"#utility.yul\":11738:11869   */\n      tag_136\n      jump\t// in\n    tag_271:\n        /* \"#utility.yul\":11730:11869   */\n      swap1\n      pop\n        /* \"#utility.yul\":11457:11876   */\n      swap2\n      swap1\n      pop\n      jump\t// out\n        /* \"#utility.yul\":11882:12023   */\n    tag_137:\n        /* \"#utility.yul\":11931:11935   */\n      0x00\n        /* \"#utility.yul\":11954:11957   */\n      dup2\n        /* \"#utility.yul\":11946:11957   */\n      swap1\n      pop\n        /* \"#utility.yul\":11977:11980   */\n      dup2\n        /* \"#utility.yul\":11974:11975   */\n      0x00\n        /* \"#utility.yul\":11967:11981   */\n      mstore\n        /* \"#utility.yul\":12011:12015   */\n      0x20\n        /* \"#utility.yul\":12008:12009   */\n      0x00\n        /* \"#utility.yul\":11998:12016   */\n      keccak256\n        /* \"#utility.yul\":11990:12016   */\n      swap1\n      pop\n        /* \"#utility.yul\":11882:12023   */\n      swap2\n      swap1\n      pop\n      jump\t// out\n        /* \"#utility.yul\":12029:12122   */\n    tag_138:\n        /* \"#utility.yul\":12066:12072   */\n      0x00\n        /* \"#utility.yul\":12113:12115   */\n      0x20\n        /* \"#utility.yul\":12108:12110   */\n      0x1f\n        /* \"#utility.yul\":12101:12106   */\n      dup4\n        /* \"#utility.yul\":12097:12111   */\n      add\n        /* \"#utility.yul\":12093:12116   */\n      div\n        /* \"#utility.yul\":12083:12116   */\n      swap1\n      pop\n        /* \"#utility.yul\":12029:12122   */\n      swap2\n      swap1\n      pop\n      jump\t// out\n        /* \"#utility.yul\":12128:12235   */\n    tag_139:\n        /* \"#utility.yul\":12172:12180   */\n      0x00\n        /* \"#utility.yul\":12222:12227   */\n      dup3\n        /* \"#utility.yul\":12216:12220   */\n      dup3\n        /* \"#utility.yul\":12212:12228   */\n      shl\n        /* \"#utility.yul\":12191:12228   */\n      swap1\n      pop\n        /* \"#utility.yul\":12128:12235   */\n      swap3\n      swap2\n      pop\n      pop\n      jump\t// out\n        /* \"#utility.yul\":12241:12634   */\n    tag_140:\n        /* \"#utility.yul\":12310:12316   */\n      0x00\n        /* \"#utility.yul\":12360:12361   */\n      0x08\n        /* \"#utility.yul\":12348:12358   */\n      dup4\n        /* \"#utility.yul\":12344:12362   */\n      mul\n        /* \"#utility.yul\":12383:12480   */\n      tag_276\n        /* \"#utility.yul\":12413:12479   */\n      0xffffffffffffffffffffffffffffffffffffffffffffffffffffffffffffffff\n        /* \"#utility.yul\":12402:12411   */\n      dup3\n        /* \"#utility.yul\":12383:12480   */\n      tag_139\n      jump\t// in\n    tag_276:\n        /* \"#utility.yul\":12501:12540   */\n      tag_277\n        /* \"#utility.yul\":12531:12539   */\n      dup7\n        /* \"#utility.yul\":12520:12529   */\n      dup4\n        /* \"#utility.yul\":12501:12540   */\n      tag_139\n      jump\t// in\n    tag_277:\n        /* \"#utility.yul\":12489:12540   */\n      swap6\n      pop\n        /* \"#utility.yul\":12573:12577   */\n      dup1\n        /* \"#utility.yul\":12569:12578   */\n      not\n        /* \"#utility.yul\":12562:12567   */\n      dup5\n        /* \"#utility.yul\":12558:12579   */\n      and\n        /* \"#utility.yul\":12549:12579   */\n      swap4\n      pop\n        /* \"#utility.yul\":12622:12626   */\n      dup1\n        /* \"#utility.yul\":12612:12620   */\n      dup7\n        /* \"#utility.yul\":12608:12627   */\n      and\n        /* \"#utility.yul\":12601:12606   */\n      dup5\n        /* \"#utility.yul\":12598:12628   */\n      or\n        /* \"#utility.yul\":12588:12628   */\n      swap3\n      pop\n        /* \"#utility.yul\":12317:12634   */\n      pop\n      pop\n        /* \"#utility.yul\":12241:12634   */\n      swap4\n      swap3\n      pop\n      pop\n      pop\n      jump\t// out\n        /* \"#utility.yul\":12640:12700   */\n    tag_141:\n        /* \"#utility.yul\":12668:12671   */\n      0x00\n        /* \"#utility.yul\":12689:12694   */\n      dup2\n        /* \"#utility.yul\":12682:12694   */\n      swap1\n      pop\n        /* \"#utility.yul\":12640:12700   */\n      swap2\n      swap1\n      pop\n      jump\t// out\n        /* \"#utility.yul\":12706:12848   */\n    tag_142:\n        /* \"#utility.yul\":12756:12765   */\n      0x00\n        /* \"#utility.yul\":12789:12842   */\n      tag_280\n        /* \"#utility.yul\":12807:12841   */\n      tag_281\n        /* \"#utility.yul\":12816:12840   */\n      tag_282\n        /* \"#utility.yul\":12834:12839   */\n      dup5\n        /* \"#utility.yul\":12816:12840   */\n      tag_128\n      jump\t// in\n    tag_282:\n        /* \"#utility.yul\":12807:12841   */\n      tag_141\n      jump\t// in\n    tag_281:\n        /* \"#utility.yul\":12789:12842   */\n      tag_128\n      jump\t// in\n    tag_280:\n        /* \"#utility.yul\":12776:12842   */\n      swap1\n      pop\n        /* \"#utility.yul\":12706:12848   */\n      swap2\n      swap1\n      pop\n      jump\t// out\n        /* \"#utility.yul\":12854:12929   */\n    tag_143:\n        /* \"#utility.yul\":12897:12900   */\n      0x00\n        /* \"#utility.yul\":12918:12923   */\n      dup2\n        /* \"#utility.yul\":12911:12923   */\n      swap1\n      pop\n        /* \"#utility.yul\":12854:12929   */\n      swap2\n      swap1\n      pop\n      jump\t// out\n        /* \"#utility.yul\":12935:13204   */\n    tag_144:\n        /* \"#utility.yul\":13045:13084   */\n      tag_285\n        /* \"#utility.yul\":13076:13083   */\n      dup4\n        /* \"#utility.yul\":13045:13084   */\n      tag_142\n      jump\t// in\n    tag_285:\n        /* \"#utility.yul\":13106:13197   */\n      tag_286\n        /* \"#utility.yul\":13155:13196   */\n      tag_287\n        /* \"#utility.yul\":13179:13195   */\n      dup3\n        /* \"#utility.yul\":13155:13196   */\n      tag_143\n      jump\t// in\n    tag_287:\n        /* \"#utility.yul\":13147:13153   */\n      dup5\n        /* \"#utility.yul\":13140:13144   */\n      dup5\n        /* \"#utility.yul\":13134:13145   */\n      sload\n        /* \"#utility.yul\":13106:13197   */\n      tag_140\n      jump\t// in\n    tag_286:\n        /* \"#utility.yul\":13100:13104   */\n      dup3\n        /* \"#utility.yul\":13093:13198   */\n      sstore\n        /* \"#utility.yul\":13011:13204   */\n      pop\n        /* \"#utility.yul\":12935:13204   */\n      pop\n      pop\n      pop\n      jump\t// out\n        /* \"#utility.yul\":13210:13283   */\n    tag_145:\n        /* \"#utility.yul\":13255:13258   */\n      0x00\n        /* \"#utility.yul\":13210:13283   */\n      swap1\n      jump\t// out\n        /* \"#utility.yul\":13289:13478   */\n    tag_146:\n        /* \"#utility.yul\":13366:13398   */\n      tag_290\n      tag_145\n      jump\t// in\n    tag_290:\n        /* \"#utility.yul\":13407:13472   */\n      tag_291\n        /* \"#utility.yul\":13465:13471   */\n      dup2\n        /* \"#utility.yul\":13457:13463   */\n      dup5\n        /* \"#utility.yul\":13451:13455   */\n      dup5\n        /* \"#utility.yul\":13407:13472   */\n      tag_144\n      jump\t// in\n    tag_291:\n        /* \"#utility.yul\":13342:13478   */\n      pop\n        /* \"#utility.yul\":13289:13478   */\n      pop\n      pop\n      jump\t// out\n        /* \"#utility.yul\":13484:13670   */\n    tag_147:\n        /* \"#utility.yul\":13544:13664   */\n    tag_293:\n        /* \"#utility.yul\":13561:13564   */\n      dup2\n        /* \"#utility.yul\":13554:13559   */\n      dup2\n        /* \"#utility.yul\":13551:13565   */\n      lt\n        /* \"#utility.yul\":13544:13664   */\n      iszero\n      tag_295\n      jumpi\n        /* \"#utility.yul\":13615:13654   */\n      tag_296\n        /* \"#utility.yul\":13652:13653   */\n      0x00\n        /* \"#utility.yul\":13645:13650   */\n      dup3\n        /* \"#utility.yul\":13615:13654   */\n      tag_146\n      jump\t// in\n    tag_296:\n        /* \"#utility.yul\":13588:13589   */\n      0x01\n        /* \"#utility.yul\":13581:13586   */\n      dup2\n        /* \"#utility.yul\":13577:13590   */\n      add\n        /* \"#utility.yul\":13568:13590   */\n      swap1\n      pop\n        /* \"#utility.yul\":13544:13664   */\n      jump(tag_293)\n    tag_295:\n        /* \"#utility.yul\":13484:13670   */\n      pop\n      pop\n      jump\t// out\n        /* \"#utility.yul\":13676:14219   */\n    tag_148:\n        /* \"#utility.yul\":13777:13779   */\n      0x1f\n        /* \"#utility.yul\":13772:13775   */\n      dup3\n        /* \"#utility.yul\":13769:13780   */\n      gt\n        /* \"#utility.yul\":13766:14212   */\n      iszero\n      tag_298\n      jumpi\n        /* \"#utility.yul\":13811:13849   */\n      tag_299\n        /* \"#utility.yul\":13843:13848   */\n      dup2\n        /* \"#utility.yul\":13811:13849   */\n      tag_137\n      jump\t// in\n    tag_299:\n        /* \"#utility.yul\":13895:13924   */\n      tag_300\n        /* \"#utility.yul\":13913:13923   */\n      dup5\n        /* \"#utility.yul\":13895:13924   */\n      tag_138\n      jump\t// in\n    tag_300:\n        /* \"#utility.yul\":13885:13893   */\n      dup2\n        /* \"#utility.yul\":13881:13925   */\n      add\n        /* \"#utility.yul\":14078:14080   */\n      0x20\n        /* \"#utility.yul\":14066:14076   */\n      dup6\n        /* \"#utility.yul\":14063:14081   */\n      lt\n        /* \"#utility.yul\":14060:14109   */\n      iszero\n      tag_301\n      jumpi\n        /* \"#utility.yul\":14099:14107   */\n      dup2\n        /* \"#utility.yul\":14084:14107   */\n      swap1\n      pop\n        /* \"#utility.yul\":14060:14109   */\n    tag_301:\n        /* \"#utility.yul\":14122:14202   */\n      tag_302\n        /* \"#utility.yul\":14178:14200   */\n      tag_303\n        /* \"#utility.yul\":14196:14199   */\n      dup6\n        /* \"#utility.yul\":14178:14200   */\n      tag_138\n      jump\t// in\n    tag_303:\n        /* \"#utility.yul\":14168:14176   */\n      dup4\n        /* \"#utility.yul\":14164:14201   */\n      add\n        /* \"#utility.yul\":14151:14162   */\n      dup3\n        /* \"#utility.yul\":14122:14202   */\n      tag_147\n      jump\t// in\n    tag_302:\n        /* \"#utility.yul\":13781:14212   */\n      pop\n      pop\n        /* \"#utility.yul\":13766:14212   */\n    tag_298:\n        /* \"#utility.yul\":13676:14219   */\n      pop\n      pop\n      pop\n      jump\t// out\n        /* \"#utility.yul\":14225:14342   */\n    tag_149:\n        /* \"#utility.yul\":14279:14287   */\n      0x00\n        /* \"#utility.yul\":14329:14334   */\n      dup3\n        /* \"#utility.yul\":14323:14327   */\n      dup3\n        /* \"#utility.yul\":14319:14335   */\n      shr\n        /* \"#utility.yul\":14298:14335   */\n      swap1\n      pop\n        /* \"#utility.yul\":14225:14342   */\n      swap3\n      swap2\n      pop\n      pop\n      jump\t// out\n        /* \"#utility.yul\":14348:14517   */\n    tag_150:\n        /* \"#utility.yul\":14392:14398   */\n      0x00\n        /* \"#utility.yul\":14425:14476   */\n      tag_306\n        /* \"#utility.yul\":14473:14474   */\n      0x00\n        /* \"#utility.yul\":14469:14475   */\n      not\n        /* \"#utility.yul\":14461:14466   */\n      dup5\n        /* \"#utility.yul\":14458:14459   */\n      0x08\n        /* \"#utility.yul\":14454:14467   */\n      mul\n        /* \"#utility.yul\":14425:14476   */\n      tag_149\n      jump\t// in\n    tag_306:\n        /* \"#utility.yul\":14421:14477   */\n      not\n        /* \"#utility.yul\":14506:14510   */\n      dup1\n        /* \"#utility.yul\":14500:14504   */\n      dup4\n        /* \"#utility.yul\":14496:14511   */\n      and\n        /* \"#utility.yul\":14486:14511   */\n      swap2\n      pop\n        /* \"#utility.yul\":14399:14517   */\n      pop\n        /* \"#utility.yul\":14348:14517   */\n      swap3\n      swap2\n      pop\n      pop\n      jump\t// out\n        /* \"#utility.yul\":14522:14817   */\n    tag_151:\n        /* \"#utility.yul\":14598:14602   */\n      0x00\n        /* \"#utility.yul\":14744:14773   */\n      tag_308\n        /* \"#utility.yul\":14769:14772   */\n      dup4\n        /* \"#utility.yul\":14763:14767   */\n      dup4\n        /* \"#utility.yul\":14744:14773   */\n      tag_150\n      jump\t// in\n    tag_308:\n        /* \"#utility.yul\":14736:14773   */\n      swap2\n      pop\n        /* \"#utility.yul\":14806:14809   */\n      dup3\n        /* \"#utility.yul\":14803:14804   */\n      0x02\n        /* \"#utility.yul\":14799:14810   */\n      mul\n        /* \"#utility.yul\":14793:14797   */\n      dup3\n        /* \"#utility.yul\":14790:14811   */\n      or\n        /* \"#utility.yul\":14782:14811   */\n      swap1\n      pop\n        /* \"#utility.yul\":14522:14817   */\n      swap3\n      swap2\n      pop\n      pop\n      jump\t// out\n        /* \"#utility.yul\":14822:16217   */\n    tag_64:\n        /* \"#utility.yul\":14939:14976   */\n      tag_310\n        /* \"#utility.yul\":14972:14975   */\n      dup3\n        /* \"#utility.yul\":14939:14976   */\n      tag_121\n      jump\t// in\n    tag_310:\n        /* \"#utility.yul\":15041:15059   */\n      0xffffffffffffffff\n        /* \"#utility.yul\":15033:15039   */\n      dup2\n        /* \"#utility.yul\":15030:15060   */\n      gt\n        /* \"#utility.yul\":15027:15083   */\n      iszero\n      tag_311\n      jumpi\n        /* \"#utility.yul\":15063:15081   */\n      tag_312\n      tag_114\n      jump\t// in\n    tag_312:\n        /* \"#utility.yul\":15027:15083   */\n    tag_311:\n        /* \"#utility.yul\":15107:15145   */\n      tag_313\n        /* \"#utility.yul\":15139:15143   */\n      dup3\n        /* \"#utility.yul\":15133:15144   */\n      sload\n        /* \"#utility.yul\":15107:15145   */\n      tag_37\n      jump\t// in\n    tag_313:\n        /* \"#utility.yul\":15192:15259   */\n      tag_314\n        /* \"#utility.yul\":15252:15258   */\n      dup3\n        /* \"#utility.yul\":15244:15250   */\n      dup3\n        /* \"#utility.yul\":15238:15242   */\n      dup6\n        /* \"#utility.yul\":15192:15259   */\n      tag_148\n      jump\t// in\n    tag_314:\n        /* \"#utility.yul\":15286:15287   */\n      0x00\n        /* \"#utility.yul\":15310:15314   */\n      0x20\n        /* \"#utility.yul\":15297:15314   */\n      swap1\n      pop\n        /* \"#utility.yul\":15342:15344   */\n      0x1f\n        /* \"#utility.yul\":15334:15340   */\n      dup4\n        /* \"#utility.yul\":15331:15345   */\n      gt\n        /* \"#utility.yul\":15359:15360   */\n      0x01\n        /* \"#utility.yul\":15354:15972   */\n      dup2\n      eq\n      tag_316\n      jumpi\n        /* \"#utility.yul\":16016:16017   */\n      0x00\n        /* \"#utility.yul\":16033:16039   */\n      dup5\n        /* \"#utility.yul\":16030:16107   */\n      iszero\n      tag_317\n      jumpi\n        /* \"#utility.yul\":16082:16091   */\n      dup3\n        /* \"#utility.yul\":16077:16080   */\n      dup8\n        /* \"#utility.yul\":16073:16092   */\n      add\n        /* \"#utility.yul\":16067:16093   */\n      mload\n        /* \"#utility.yul\":16058:16093   */\n      swap1\n      pop\n        /* \"#utility.yul\":16030:16107   */\n    tag_317:\n        /* \"#utility.yul\":16133:16200   */\n      tag_318\n        /* \"#utility.yul\":16193:16199   */\n      dup6\n        /* \"#utility.yul\":16186:16191   */\n      dup3\n        /* \"#utility.yul\":16133:16200   */\n      tag_151\n      jump\t// in\n    tag_318:\n        /* \"#utility.yul\":16127:16131   */\n      dup7\n        /* \"#utility.yul\":16120:16201   */\n      sstore\n        /* \"#utility.yul\":15989:16211   */\n      pop\n        /* \"#utility.yul\":15324:16211   */\n      jump(tag_315)\n        /* \"#utility.yul\":15354:15972   */\n    tag_316:\n        /* \"#utility.yul\":15406:15410   */\n      0x1f\n        /* \"#utility.yul\":15402:15411   */\n      not\n        /* \"#utility.yul\":15394:15400   */\n      dup5\n        /* \"#utility.yul\":15390:15412   */\n      and\n        /* \"#utility.yul\":15440:15477   */\n      tag_319\n        /* \"#utility.yul\":15472:15476   */\n      dup7\n        /* \"#utility.yul\":15440:15477   */\n      tag_137\n      jump\t// in\n    tag_319:\n        /* \"#utility.yul\":15499:15500   */\n      0x00\n        /* \"#utility.yul\":15513:15721   */\n    tag_320:\n        /* \"#utility.yul\":15527:15534   */\n      dup3\n        /* \"#utility.yul\":15524:15525   */\n      dup2\n        /* \"#utility.yul\":15521:15535   */\n      lt\n        /* \"#utility.yul\":15513:15721   */\n      iszero\n      tag_322\n      jumpi\n        /* \"#utility.yul\":15606:15615   */\n      dup5\n        /* \"#utility.yul\":15601:15604   */\n      dup10\n        /* \"#utility.yul\":15597:15616   */\n      add\n        /* \"#utility.yul\":15591:15617   */\n      mload\n        /* \"#utility.yul\":15583:15589   */\n      dup3\n        /* \"#utility.yul\":15576:15618   */\n      sstore\n        /* \"#utility.yul\":15657:15658   */\n      0x01\n        /* \"#utility.yul\":15649:15655   */\n      dup3\n        /* \"#utility.yul\":15645:15659   */\n      add\n        /* \"#utility.yul\":15635:15659   */\n      swap2\n      pop\n        /* \"#utility.yul\":15704:15706   */\n      0x20\n        /* \"#utility.yul\":15693:15702   */\n      dup6\n        /* \"#utility.yul\":15689:15707   */\n      add\n        /* \"#utility.yul\":15676:15707   */\n      swap5\n      pop\n        /* \"#utility.yul\":15550:15554   */\n      0x20\n        /* \"#utility.yul\":15547:15548   */\n      dup2\n        /* \"#utility.yul\":15543:15555   */\n      add\n        /* \"#utility.yul\":15538:15555   */\n      swap1\n      pop\n        /* \"#utility.yul\":15513:15721   */\n      jump(tag_320)\n    tag_322:\n        /* \"#utility.yul\":15749:15755   */\n      dup7\n        /* \"#utility.yul\":15740:15747   */\n      dup4\n        /* \"#utility.yul\":15737:15756   */\n      lt\n        /* \"#utility.yul\":15734:15913   */\n      iszero\n      tag_323\n      jumpi\n        /* \"#utility.yul\":15807:15816   */\n      dup5\n        /* \"#utility.yul\":15802:15805   */\n      dup10\n        /* \"#utility.yul\":15798:15817   */\n      add\n        /* \"#utility.yul\":15792:15818   */\n      mload\n        /* \"#utility.yul\":15850:15898   */\n      tag_324\n        /* \"#utility.yul\":15892:15896   */\n      0x1f\n        /* \"#utility.yul\":15884:15890   */\n      dup10\n        /* \"#utility.yul\":15880:15897   */\n      and\n        /* \"#utility.yul\":15869:15878   */\n      dup3\n        /* \"#utility.yul\":15850:15898   */\n      tag_150\n      jump\t// in\n    tag_324:\n        /* \"#utility.yul\":15842:15848   */\n      dup4\n        /* \"#utility.yul\":15835:15899   */\n      sstore\n        /* \"#utility.yul\":15757:15913   */\n      pop\n        /* \"#utility.yul\":15734:15913   */\n    tag_323:\n        /* \"#utility.yul\":15959:15960   */\n      0x01\n        /* \"#utility.yul\":15955:15956   */\n      0x02\n        /* \"#utility.yul\":15947:15953   */\n      dup9\n        /* \"#utility.yul\":15943:15957   */\n      mul\n        /* \"#utility.yul\":15939:15961   */\n      add\n        /* \"#utility.yul\":15933:15937   */\n      dup9\n        /* \"#utility.yul\":15926:15962   */\n      sstore\n        /* \"#utility.yul\":15361:15972   */\n      pop\n      pop\n      pop\n        /* \"#utility.yul\":15324:16211   */\n    tag_315:\n      pop\n        /* \"#utility.yul\":14914:16217   */\n      pop\n      pop\n      pop\n        /* \"#utility.yul\":14822:16217   */\n      pop\n      pop\n      jump\t// out\n        /* \"#utility.yul\":16223:16646   */\n    tag_71:\n        /* \"#utility.yul\":16364:16368   */\n      0x00\n        /* \"#utility.yul\":16402:16404   */\n      0x40\n        /* \"#utility.yul\":16391:16400   */\n      dup3\n        /* \"#utility.yul\":16387:16405   */\n      add\n        /* \"#utility.yul\":16379:16405   */\n      swap1\n      pop\n        /* \"#utility.yul\":16451:16460   */\n      dup2\n        /* \"#utility.yul\":16445:16449   */\n      dup2\n        /* \"#utility.yul\":16441:16461   */\n      sub\n        /* \"#utility.yul\":16437:16438   */\n      0x00\n        /* \"#utility.yul\":16426:16435   */\n      dup4\n        /* \"#utility.yul\":16422:16439   */\n      add\n        /* \"#utility.yul\":16415:16462   */\n      mstore\n        /* \"#utility.yul\":16479:16557   */\n      tag_326\n        /* \"#utility.yul\":16552:16556   */\n      dup2\n        /* \"#utility.yul\":16543:16549   */\n      dup6\n        /* \"#utility.yul\":16479:16557   */\n      tag_124\n      jump\t// in\n    tag_326:\n        /* \"#utility.yul\":16471:16557   */\n      swap1\n      pop\n        /* \"#utility.yul\":16567:16639   */\n      tag_327\n        /* \"#utility.yul\":16635:16637   */\n      0x20\n        /* \"#utility.yul\":16624:16633   */\n      dup4\n        /* \"#utility.yul\":16620:16638   */\n      add\n        /* \"#utility.yul\":16611:16617   */\n      dup5\n        /* \"#utility.yul\":16567:16639   */\n      tag_127\n      jump\t// in\n    tag_327:\n        /* \"#utility.yul\":16223:16646   */\n      swap4\n      swap3\n      pop\n      pop\n      pop\n      jump\t// out\n        /* \"#utility.yul\":16652:16820   */\n    tag_152:\n        /* \"#utility.yul\":16792:16812   */\n      0x46495220646f6573206e6f742065786973740000000000000000000000000000\n        /* \"#utility.yul\":16788:16789   */\n      0x00\n        /* \"#utility.yul\":16780:16786   */\n      dup3\n        /* \"#utility.yul\":16776:16790   */\n      add\n        /* \"#utility.yul\":16769:16813   */\n      mstore\n        /* \"#utility.yul\":16652:16820   */\n      pop\n      jump\t// out\n        /* \"#utility.yul\":16826:17192   */\n    tag_153:\n        /* \"#utility.yul\":16968:16971   */\n      0x00\n        /* \"#utility.yul\":16989:17056   */\n      tag_330\n        /* \"#utility.yul\":17053:17055   */\n      0x12\n        /* \"#utility.yul\":17048:17051   */\n      dup4\n        /* \"#utility.yul\":16989:17056   */\n      tag_122\n      jump\t// in\n    tag_330:\n        /* \"#utility.yul\":16982:17056   */\n      swap2\n      pop\n        /* \"#utility.yul\":17065:17158   */\n      tag_331\n        /* \"#utility.yul\":17154:17157   */\n      dup3\n        /* \"#utility.yul\":17065:17158   */\n      tag_152\n      jump\t// in\n    tag_331:\n        /* \"#utility.yul\":17183:17185   */\n      0x20\n        /* \"#utility.yul\":17178:17181   */\n      dup3\n        /* \"#utility.yul\":17174:17186   */\n      add\n        /* \"#utility.yul\":17167:17186   */\n      swap1\n      pop\n        /* \"#utility.yul\":16826:17192   */\n      swap2\n      swap1\n      pop\n      jump\t// out\n        /* \"#utility.yul\":17198:17617   */\n    tag_76:\n        /* \"#utility.yul\":17364:17368   */\n      0x00\n        /* \"#utility.yul\":17402:17404   */\n      0x20\n        /* \"#utility.yul\":17391:17400   */\n      dup3\n        /* \"#utility.yul\":17387:17405   */\n      add\n        /* \"#utility.yul\":17379:17405   */\n      swap1\n      pop\n        /* \"#utility.yul\":17451:17460   */\n      dup2\n        /* \"#utility.yul\":17445:17449   */\n      dup2\n        /* \"#utility.yul\":17441:17461   */\n      sub\n        /* \"#utility.yul\":17437:17438   */\n      0x00\n        /* \"#utility.yul\":17426:17435   */\n      dup4\n        /* \"#utility.yul\":17422:17439   */\n      add\n        /* \"#utility.yul\":17415:17462   */\n      mstore\n        /* \"#utility.yul\":17479:17610   */\n      tag_333\n        /* \"#utility.yul\":17605:17609   */\n      dup2\n        /* \"#utility.yul\":17479:17610   */\n      tag_153\n      jump\t// in\n    tag_333:\n        /* \"#utility.yul\":17471:17610   */\n      swap1\n      pop\n        /* \"#utility.yul\":17198:17617   */\n      swap2\n      swap1\n      pop\n      jump\t// out\n        /* \"#utility.yul\":17623:18137   */\n    tag_80:\n        /* \"#utility.yul\":17784:17788   */\n      0x00\n        /* \"#utility.yul\":17822:17824   */\n      0x40\n        /* \"#utility.yul\":17811:17820   */\n      dup3\n        /* \"#utility.yul\":17807:17825   */\n      add\n        /* \"#utility.yul\":17799:17825   */\n      swap1\n      pop\n        /* \"#utility.yul\":17871:17880   */\n      dup2\n        /* \"#utility.yul\":17865:17869   */\n      dup2\n        /* \"#utility.yul\":17861:17881   */\n      sub\n        /* \"#utility.yul\":17857:17858   */\n      0x00\n        /* \"#utility.yul\":17846:17855   */\n      dup4\n        /* \"#utility.yul\":17842:17859   */\n      add\n        /* \"#utility.yul\":17835:17882   */\n      mstore\n        /* \"#utility.yul\":17899:17977   */\n      tag_335\n        /* \"#utility.yul\":17972:17976   */\n      dup2\n        /* \"#utility.yul\":17963:17969   */\n      dup6\n        /* \"#utility.yul\":17899:17977   */\n      tag_124\n      jump\t// in\n    tag_335:\n        /* \"#utility.yul\":17891:17977   */\n      swap1\n      pop\n        /* \"#utility.yul\":18024:18033   */\n      dup2\n        /* \"#utility.yul\":18018:18022   */\n      dup2\n        /* \"#utility.yul\":18014:18034   */\n      sub\n        /* \"#utility.yul\":18009:18011   */\n      0x20\n        /* \"#utility.yul\":17998:18007   */\n      dup4\n        /* \"#utility.yul\":17994:18012   */\n      add\n        /* \"#utility.yul\":17987:18035   */\n      mstore\n        /* \"#utility.yul\":18052:18130   */\n      tag_336\n        /* \"#utility.yul\":18125:18129   */\n      dup2\n        /* \"#utility.yul\":18116:18122   */\n      dup5\n        /* \"#utility.yul\":18052:18130   */\n      tag_124\n      jump\t// in\n    tag_336:\n        /* \"#utility.yul\":18044:18130   */\n      swap1\n      pop\n        /* \"#utility.yul\":17623:18137   */\n      swap4\n      swap3\n      pop\n      pop\n      pop\n      jump\t// out\n\n    auxdata: 0xa264697066735822122094816b1091eece5f8c3ba81cf74b68822a691e537314bff59294fd84d76a94af64736f6c63430008140033\n}\n","bytecode":{"linkReferences":{},"object":"608060405234801561000f575f80fd5b5061141d8061001d5f395ff3fe608060405234801561000f575f80fd5b5060043610610055575f3560e01c806305fd4b81146100595780632227454c1461008d578063347047cc146100a95780639be8df79146100c5578063f423c096146100f5575b5f80fd5b610073600480360381019061006e9190610c13565b61012a565b604051610084959493929190610d2b565b60405180910390f35b6100a760048036038101906100a29190610d91565b610427565b005b6100c360048036038101906100be9190610e35565b610682565b005b6100df60048036038101906100da9190610ed5565b61079a565b6040516100ec9190610f00565b60405180910390f35b61010f600480360381019061010a9190610c13565b610840565b60405161012196959493929190610f20565b60405180910390f35b60608060605f805f80876040516101419190610fd5565b90815260200160405180910390206040518060c00160405290815f8201805461016990611018565b80601f016020809104026020016040519081016040528092919081815260200182805461019590611018565b80156101e05780601f106101b7576101008083540402835291602001916101e0565b820191905f5260205f20905b8154815290600101906020018083116101c357829003601f168201915b505050505081526020016001820180546101f990611018565b80601f016020809104026020016040519081016040528092919081815260200182805461022590611018565b80156102705780601f1061024757610100808354040283529160200191610270565b820191905f5260205f20905b81548152906001019060200180831161025357829003601f168201915b5050505050815260200160028201805461028990611018565b80601f01602080910402602001604051908101604052809291908181526020018280546102b590611018565b80156103005780601f106102d757610100808354040283529160200191610300565b820191905f5260205f20905b8154815290600101906020018083116102e357829003601f168201915b5050505050815260200160038201805461031990611018565b80601f016020809104026020016040519081016040528092919081815260200182805461034590611018565b80156103905780601f1061036757610100808354040283529160200191610390565b820191905f5260205f20905b81548152906001019060200180831161037357829003601f168201915b50505050508152602001600482015f9054906101000a900473ffffffffffffffffffffffffffffffffffffffff1673ffffffffffffffffffffffffffffffffffffffff1673ffffffffffffffffffffffffffffffffffffffff168152602001600582015481525050905080602001518160400151826060015183608001518460a00151955095509550955095505091939590929450565b5f73ffffffffffffffffffffffffffffffffffffffff165f8460405161044d9190610fd5565b90815260200160405180910390206004015f9054906101000a900473ffffffffffffffffffffffffffffffffffffffff1673ffffffffffffffffffffffffffffffffffffffff16146104d4576040517f08c379a00000000000000000000000000000000000000000000000000000000081526004016104cb90611092565b60405180910390fd5b6040518060c001604052808481526020018381526020018281526020016040518060400160405280600581526020017f46494c454400000000000000000000000000000000000000000000000000000081525081526020013373ffffffffffffffffffffffffffffffffffffffff168152602001428152505f8460405161055b9190610fd5565b90815260200160405180910390205f820151815f01908161057c919061124d565b506020820151816001019081610592919061124d565b5060408201518160020190816105a8919061124d565b5060608201518160030190816105be919061124d565b506080820151816004015f6101000a81548173ffffffffffffffffffffffffffffffffffffffff021916908373ffffffffffffffffffffffffffffffffffffffff16021790555060a08201518160050155905050600183908060018154018082558091505060019003905f5260205f20015f909190919091509081610643919061124d565b507ff4690bb36d9e13c5eb5eac5fa522903d950fad6fa0e3a7811f176d7022548ce4833360405161067592919061131c565b60405180910390a1505050565b5f73ffffffffffffffffffffffffffffffffffffffff165f836040516106a89190610fd5565b90815260200160405180910390206004015f9054906101000a900473ffffffffffffffffffffffffffffffffffffffff1673ffffffffffffffffffffffffffffffffffffffff160361072f576040517f08c379a000000000000000000000000000000000000000000000000000000000815260040161072690611394565b60405180910390fd5b805f8360405161073f9190610fd5565b9081526020016040518091039020600301908161075c919061124d565b507fb75b1fec1bc9156569ae9f72fb29c6e6727b297e191d358465fff4c09d8f7d26828260405161078e9291906113b2565b60405180910390a15050565b600181815481106107a9575f80fd5b905f5260205f20015f9150905080546107c190611018565b80601f01602080910402602001604051908101604052809291908181526020018280546107ed90611018565b80156108385780601f1061080f57610100808354040283529160200191610838565b820191905f5260205f20905b81548152906001019060200180831161081b57829003601f168201915b505050505081565b5f818051602081018201805184825260208301602085012081835280955050505050505f91509050805f01805461087690611018565b80601f01602080910402602001604051908101604052809291908181526020018280546108a290611018565b80156108ed5780601f106108c4576101008083540402835291602001916108ed565b820191905f5260205f20905b8154815290600101906020018083116108d057829003601f168201915b50505050509080600101805461090290611018565b80601f016020809104026020016040519081016040528092919081815260200182805461092e90611018565b80156109795780601f1061095057610100808354040283529160200191610979565b820191905f5260205f20905b81548152906001019060200180831161095c57829003601f168201915b50505050509080600201805461098e90611018565b80601f01602080910402602001604051908101604052809291908181526020018280546109ba90611018565b8015610a055780601f106109dc57610100808354040283529160200191610a05565b820191905f5260205f20905b8154815290600101906020018083116109e857829003601f168201915b505050505090806003018054610a1a90611018565b80601f0160208091040260200160405190810160405280929190818152602001828054610a4690611018565b8015610a915780601f10610a6857610100808354040283529160200191610a91565b820191905f5260205f20905b815481529060010190602001808311610a7457829003601f168201915b505050505090806004015f9054906101000a900473ffffffffffffffffffffffffffffffffffffffff16908060050154905086565b5f604051905090565b5f80fd5b5f80fd5b5f80fd5b5f80fd5b5f601f19601f8301169050919050565b7f4e487b71000000000000000000000000000000000000000000000000000000005f52604160045260245ffd5b610b2582610adf565b810181811067ffffffffffffffff82111715610b4457610b43610aef565b5b80604052505050565b5f610b56610ac6565b9050610b628282610b1c565b919050565b5f67ffffffffffffffff821115610b8157610b80610aef565b5b610b8a82610adf565b9050602081019050919050565b828183375f83830152505050565b5f610bb7610bb284610b67565b610b4d565b905082815260208101848484011115610bd357610bd2610adb565b5b610bde848285610b97565b509392505050565b5f82601f830112610bfa57610bf9610ad7565b5b8135610c0a848260208601610ba5565b91505092915050565b5f60208284031215610c2857610c27610acf565b5b5f82013567ffffffffffffffff811115610c4557610c44610ad3565b5b610c5184828501610be6565b91505092915050565b5f81519050919050565b5f82825260208201905092915050565b5f5b83811015610c91578082015181840152602081019050610c76565b5f8484015250505050565b5f610ca682610c5a565b610cb08185610c64565b9350610cc0818560208601610c74565b610cc981610adf565b840191505092915050565b5f73ffffffffffffffffffffffffffffffffffffffff82169050919050565b5f610cfd82610cd4565b9050919050565b610d0d81610cf3565b82525050565b5f819050919050565b610d2581610d13565b82525050565b5f60a0820190508181035f830152610d438188610c9c565b90508181036020830152610d578187610c9c565b90508181036040830152610d6b8186610c9c565b9050610d7a6060830185610d04565b610d876080830184610d1c565b9695505050505050565b5f805f60608486031215610da857610da7610acf565b5b5f84013567ffffffffffffffff811115610dc557610dc4610ad3565b5b610dd186828701610be6565b935050602084013567ffffffffffffffff811115610df257610df1610ad3565b5b610dfe86828701610be6565b925050604084013567ffffffffffffffff811115610e1f57610e1e610ad3565b5b610e2b86828701610be6565b9150509250925092565b5f8060408385031215610e4b57610e4a610acf565b5b5f83013567ffffffffffffffff811115610e6857610e67610ad3565b5b610e7485828601610be6565b925050602083013567ffffffffffffffff811115610e9557610e94610ad3565b5b610ea185828601610be6565b9150509250929050565b610eb481610d13565b8114610ebe575f80fd5b50565b5f81359050610ecf81610eab565b92915050565b5f60208284031215610eea57610ee9610acf565b5b5f610ef784828501610ec1565b91505092915050565b5f6020820190508181035f830152610f188184610c9c565b905092915050565b5f60c0820190508181035f830152610f388189610c9c565b90508181036020830152610f4c8188610c9c565b90508181036040830152610f608187610c9c565b90508181036060830152610f748186610c9c565b9050610f836080830185610d04565b610f9060a0830184610d1c565b979650505050505050565b5f81905092915050565b5f610faf82610c5a565b610fb98185610f9b565b9350610fc9818560208601610c74565b80840191505092915050565b5f610fe08284610fa5565b915081905092915050565b7f4e487b71000000000000000000000000000000000000000000000000000000005f52602260045260245ffd5b5f600282049050600182168061102f57607f821691505b60208210810361104257611041610feb565b5b50919050565b7f46495220616c72656164792065786973747300000000000000000000000000005f82015250565b5f61107c601283610c64565b915061108782611048565b602082019050919050565b5f6020820190508181035f8301526110a981611070565b9050919050565b5f819050815f5260205f209050919050565b5f6020601f8301049050919050565b5f82821b905092915050565b5f6008830261110c7fffffffffffffffffffffffffffffffffffffffffffffffffffffffffffffffff826110d1565b61111686836110d1565b95508019841693508086168417925050509392505050565b5f819050919050565b5f61115161114c61114784610d13565b61112e565b610d13565b9050919050565b5f819050919050565b61116a83611137565b61117e61117682611158565b8484546110dd565b825550505050565b5f90565b611192611186565b61119d818484611161565b505050565b5b818110156111c0576111b55f8261118a565b6001810190506111a3565b5050565b601f821115611205576111d6816110b0565b6111df846110c2565b810160208510156111ee578190505b6112026111fa856110c2565b8301826111a2565b50505b505050565b5f82821c905092915050565b5f6112255f198460080261120a565b1980831691505092915050565b5f61123d8383611216565b9150826002028217905092915050565b61125682610c5a565b67ffffffffffffffff81111561126f5761126e610aef565b5b6112798254611018565b6112848282856111c4565b5f60209050601f8311600181146112b5575f84156112a3578287015190505b6112ad8582611232565b865550611314565b601f1984166112c3866110b0565b5f5b828110156112ea578489015182556001820191506020850194506020810190506112c5565b868310156113075784890151611303601f891682611216565b8355505b6001600288020188555050505b505050505050565b5f6040820190508181035f8301526113348185610c9c565b90506113436020830184610d04565b9392505050565b7f46495220646f6573206e6f7420657869737400000000000000000000000000005f82015250565b5f61137e601283610c64565b91506113898261134a565b602082019050919050565b5f6020820190508181035f8301526113ab81611372565b9050919050565b5f6040820190508181035f8301526113ca8185610c9c565b905081810360208301526113de8184610c9c565b9050939250505056fea264697066735822122094816b1091eece5f8c3ba81cf74b68822a691e537314bff59294fd84d76a94af64736f6c63430008140033","opcodes":"PUSH1 0x80 PUSH1 0x40 MSTORE CALLVALUE DUP1 ISZERO PUSH2 0xF JUMPI PUSH0 DUP1 REVERT JUMPDEST POP PUSH2 0x141D DUP1 PUSH2 0x1D PUSH0 CODECOPY PUSH0 RETURN INVALID PUSH1 0x80 PUSH1 0x40 MSTORE CALLVALUE DUP1 ISZERO PUSH2 0xF JUMPI PUSH0 DUP1 REVERT JUMPDEST POP PUSH1 0x4 CALLDATASIZE LT PUSH2 0x55 JUMPI PUSH0 CALLDATALOAD PUSH1 0xE0 SHR DUP1 PUSH4 0x5FD4B81 EQ PUSH2 0x59 JUMPI DUP1 PUSH4 0x2227454C EQ PUSH2 0x8D JUMPI DUP1 PUSH4 0x347047CC EQ PUSH2 0xA9 JUMPI DUP1 PUSH4 0x9BE8DF79 EQ PUSH2 0xC5 JUMPI DUP1 PUSH4 0xF423C096 EQ PUSH2 0xF5 JUMPI JUMPDEST PUSH0 DUP1 REVERT JUMPDEST PUSH2 0x73 PUSH1 0x4 DUP1 CALLDATASIZE SUB DUP2 ADD SWAP1 PUSH2 0x6E SWAP2 SWAP1 PUSH2 0xC13 JUMP JUMPDEST PUSH2 0x12A JUMP JUMPDEST PUSH1 0x40 MLOAD PUSH2 0x84 SWAP6 SWAP5 SWAP4 SWAP3 SWAP2 SWAP1 PUSH2 0xD2B JUMP JUMPDEST PUSH1 0x40 MLOAD DUP1 SWAP2 SUB SWAP1 RETURN JUMPDEST PUSH2 0xA7 PUSH1 0x4 DUP1 CALLDATASIZE SUB DUP2 ADD SWAP1 PUSH2 0xA2 SWAP2 SWAP1 PUSH2 0xD91 JUMP JUMPDEST PUSH2 0x427 JUMP JUMPDEST STOP JUMPDEST PUSH2 0xC3 PUSH1 0x4 DUP1 CALLDATASIZE SUB DUP2 ADD SWAP1 PUSH2 0xBE SWAP2 SWAP1 PUSH2 0xE35 JUMP JUMPDEST PUSH2 0x682 JUMP JUMPDEST STOP JUMPDEST PUSH2 0xDF PUSH1 0x4 DUP1 CALLDATASIZE SUB DUP2 ADD SWAP1 PUSH2 0xDA SWAP2 SWAP1 PUSH2 0xED5 JUMP JUMPDEST PUSH2 0x79A JUMP JUMPDEST PUSH1 0x40 MLOAD PUSH2 0xEC SWAP2 SWAP1 PUSH2 0xF00 JUMP JUMPDEST PUSH1 0x40 MLOAD DUP1 SWAP2 SUB SWAP1 RETURN JUMPDEST PUSH2 0x10F PUSH1 0x4 DUP1 CALLDATASIZE SUB DUP2 ADD SWAP1 PUSH2 0x10A SWAP2 SWAP1 PUSH2 0xC13 JUMP JUMPDEST PUSH2 0x840 JUMP JUMPDEST PUSH1 0x40 MLOAD PUSH2 0x121 SWAP7 SWAP6 SWAP5 SWAP4 SWAP3 SWAP2 SWAP1 PUSH2 0xF20 JUMP JUMPDEST PUSH1 0x40 MLOAD DUP1 SWAP2 SUB SWAP1 RETURN JUMPDEST PUSH1 0x60 DUP1 PUSH1 0x60 PUSH0 DUP1 PUSH0 DUP1 DUP8 PUSH1 0x40 MLOAD PUSH2 0x141 SWAP2 SWAP1 PUSH2 0xFD5 JUMP JUMPDEST SWAP1 DUP2 MSTORE PUSH1 0x20 ADD PUSH1 0x40 MLOAD DUP1 SWAP2 SUB SWAP1 KECCAK256 PUSH1 0x40 MLOAD DUP1 PUSH1 0xC0 ADD PUSH1 0x40 MSTORE SWAP1 DUP2 PUSH0 DUP3 ADD DUP1 SLOAD PUSH2 0x169 SWAP1 PUSH2 0x1018 JUMP JUMPDEST DUP1 PUSH1 0x1F ADD PUSH1 0x20 DUP1 SWAP2 DIV MUL PUSH1 0x20 ADD PUSH1 0x40 MLOAD SWAP1 DUP2 ADD PUSH1 0x40 MSTORE DUP1 SWAP3 SWAP2 SWAP1 DUP2 DUP2 MSTORE PUSH1 0x20 ADD DUP3 DUP1 SLOAD PUSH2 0x195 SWAP1 PUSH2 0x1018 JUMP JUMPDEST DUP1 ISZERO PUSH2 0x1E0 JUMPI DUP1 PUSH1 0x1F LT PUSH2 0x1B7 JUMPI PUSH2 0x100 DUP1 DUP4 SLOAD DIV MUL DUP4 MSTORE SWAP2 PUSH1 0x20 ADD SWAP2 PUSH2 0x1E0 JUMP JUMPDEST DUP3 ADD SWAP2 SWAP1 PUSH0 MSTORE PUSH1 0x20 PUSH0 KECCAK256 SWAP1 JUMPDEST DUP2 SLOAD DUP2 MSTORE SWAP1 PUSH1 0x1 ADD SWAP1 PUSH1 0x20 ADD DUP1 DUP4 GT PUSH2 0x1C3 JUMPI DUP3 SWAP1 SUB PUSH1 0x1F AND DUP3 ADD SWAP2 JUMPDEST POP POP POP POP POP DUP2 MSTORE PUSH1 0x20 ADD PUSH1 0x1 DUP3 ADD DUP1 SLOAD PUSH2 0x1F9 SWAP1 PUSH2 0x1018 JUMP JUMPDEST DUP1 PUSH1 0x1F ADD PUSH1 0x20 DUP1 SWAP2 DIV MUL PUSH1 0x20 ADD PUSH1 0x40 MLOAD SWAP1 DUP2 ADD PUSH1 0x40 MSTORE DUP1 SWAP3 SWAP2 SWAP1 DUP2 DUP2 MSTORE PUSH1 0x20 ADD DUP3 DUP1 SLOAD PUSH2 0x225 SWAP1 PUSH2 0x1018 JUMP JUMPDEST DUP1 ISZERO PUSH2 0x270 JUMPI DUP1 PUSH1 0x1F LT PUSH2 0x247 JUMPI PUSH2 0x100 DUP1 DUP4 SLOAD DIV MUL DUP4 MSTORE SWAP2 PUSH1 0x20 ADD SWAP2 PUSH2 0x270 JUMP JUMPDEST DUP3 ADD SWAP2 SWAP1 PUSH0 MSTORE PUSH1 0x20 PUSH0 KECCAK256 SWAP1 JUMPDEST DUP2 SLOAD DUP2 MSTORE SWAP1 PUSH1 0x1 ADD SWAP1 PUSH1 0x20 ADD DUP1 DUP4 GT PUSH2 0x253 JUMPI DUP3 SWAP1 SUB PUSH1 0x1F AND DUP3 ADD SWAP2 JUMPDEST POP POP POP POP POP DUP2 MSTORE PUSH1 0x20 ADD PUSH1 0x2 DUP3 ADD DUP1 SLOAD PUSH2 0x289 SWAP1 PUSH2 0x1018 JUMP JUMPDEST DUP1 PUSH1 0x1F ADD PUSH1 0x20 DUP1 SWAP2 DIV MUL PUSH1 0x20 ADD PUSH1 0x40 MLOAD SWAP1 DUP2 ADD PUSH1 0x40 MSTORE DUP1 SWAP3 SWAP2 SWAP1 DUP2 DUP2 MSTORE PUSH1 0x20 ADD DUP3 DUP1 SLOAD PUSH2 0x2B5 SWAP1 PUSH2 0x1018 JUMP JUMPDEST DUP1 ISZERO PUSH2 0x300 JUMPI DUP1 PUSH1 0x1F LT PUSH2 0x2D7 JUMPI PUSH2 0x100 DUP1 DUP4 SLOAD DIV MUL DUP4 MSTORE SWAP2 PUSH1 0x20 ADD SWAP2 PUSH2 0x300 JUMP JUMPDEST DUP3 ADD SWAP2 SWAP1 PUSH0 MSTORE PUSH1 0x20 PUSH0 KECCAK256 SWAP1 JUMPDEST DUP2 SLOAD DUP2 MSTORE SWAP1 PUSH1 0x1 ADD SWAP1 PUSH1 0x20 ADD DUP1 DUP4 GT PUSH2 0x2E3 JUMPI DUP3 SWAP1 SUB PUSH1 0x1F AND DUP3 ADD SWAP2 JUMPDEST POP POP POP POP POP DUP2 MSTORE PUSH1 0x20 ADD PUSH1 0x3 DUP3 ADD DUP1 SLOAD PUSH2 0x319 SWAP1 PUSH2 0x1018 JUMP JUMPDEST DUP1 PUSH1 0x1F ADD PUSH1 0x20 DUP1 SWAP2 DIV MUL PUSH1 0x20 ADD PUSH1 0x40 MLOAD SWAP1 DUP2 ADD PUSH1 0x40 MSTORE DUP1 SWAP3 SWAP2 SWAP1 DUP2 DUP2 MSTORE PUSH1 0x20 ADD DUP3 DUP1 SLOAD PUSH2 0x345 SWAP1 PUSH2 0x1018 JUMP JUMPDEST DUP1 ISZERO PUSH2 0x390 JUMPI DUP1 PUSH1 0x1F LT PUSH2 0x367 JUMPI PUSH2 0x100 DUP1 DUP4 SLOAD DIV MUL DUP4 MSTORE SWAP2 PUSH1 0x20 ADD SWAP2 PUSH2 0x390 JUMP JUMPDEST DUP3 ADD SWAP2 SWAP1 PUSH0 MSTORE PUSH1 0x20 PUSH0 KECCAK256 SWAP1 JUMPDEST DUP2 SLOAD DUP2 MSTORE SWAP1 PUSH1 0x1 ADD SWAP1 PUSH1 0x20 ADD DUP1 DUP4 GT PUSH2 0x373 JUMPI DUP3 SWAP1 SUB PUSH1 0x1F AND DUP3 ADD SWAP2 JUMPDEST POP POP POP POP POP DUP2 MSTORE PUSH1 0x20 ADD PUSH1 0x4 DUP3 ADD PUSH0 SWAP1 SLOAD SWAP1 PUSH2 0x100 EXP SWAP1 DIV PUSH20 0xFFFFFFFFFFFFFFFFFFFFFFFFFFFFFFFFFFFFFFFF AND PUSH20 0xFFFFFFFFFFFFFFFFFFFFFFFFFFFFFFFFFFFFFFFF AND PUSH20 0xFFFFFFFFFFFFFFFFFFFFFFFFFFFFFFFFFFFFFFFF AND DUP2 MSTORE PUSH1 0x20 ADD PUSH1 0x5 DUP3 ADD SLOAD DUP2 MSTORE POP POP SWAP1 POP DUP1 PUSH1 0x20 ADD MLOAD DUP2 PUSH1 0x40 ADD MLOAD DUP3 PUSH1 0x60 ADD MLOAD DUP4 PUSH1 0x80 ADD MLOAD DUP5 PUSH1 0xA0 ADD MLOAD SWAP6 POP SWAP6 POP SWAP6 POP SWAP6 POP SWAP6 POP POP SWAP2 SWAP4 SWAP6 SWAP1 SWAP3 SWAP5 POP JUMP JUMPDEST PUSH0 PUSH20 0xFFFFFFFFFFFFFFFFFFFFFFFFFFFFFFFFFFFFFFFF AND PUSH0 DUP5 PUSH1 0x40 MLOAD PUSH2 0x44D SWAP2 SWAP1 PUSH2 0xFD5 JUMP JUMPDEST SWAP1 DUP2 MSTORE PUSH1 0x20 ADD PUSH1 0x40 MLOAD DUP1 SWAP2 SUB SWAP1 KECCAK256 PUSH1 0x4 ADD PUSH0 SWAP1 SLOAD SWAP1 PUSH2 0x100 EXP SWAP1 DIV PUSH20 0xFFFFFFFFFFFFFFFFFFFFFFFFFFFFFFFFFFFFFFFF AND PUSH20 0xFFFFFFFFFFFFFFFFFFFFFFFFFFFFFFFFFFFFFFFF AND EQ PUSH2 0x4D4 JUMPI PUSH1 0x40 MLOAD PUSH32 0x8C379A000000000000000000000000000000000000000000000000000000000 DUP2 MSTORE PUSH1 0x4 ADD PUSH2 0x4CB SWAP1 PUSH2 0x1092 JUMP JUMPDEST PUSH1 0x40 MLOAD DUP1 SWAP2 SUB SWAP1 REVERT JUMPDEST PUSH1 0x40 MLOAD DUP1 PUSH1 0xC0 ADD PUSH1 0x40 MSTORE DUP1 DUP5 DUP2 MSTORE PUSH1 0x20 ADD DUP4 DUP2 MSTORE PUSH1 0x20 ADD DUP3 DUP2 MSTORE PUSH1 0x20 ADD PUSH1 0x40 MLOAD DUP1 PUSH1 0x40 ADD PUSH1 0x40 MSTORE DUP1 PUSH1 0x5 DUP2 MSTORE PUSH1 0x20 ADD PUSH32 0x46494C4544000000000000000000000000000000000000000000000000000000 DUP2 MSTORE POP DUP2 MSTORE PUSH1 0x20 ADD CALLER PUSH20 0xFFFFFFFFFFFFFFFFFFFFFFFFFFFFFFFFFFFFFFFF AND DUP2 MSTORE PUSH1 0x20 ADD TIMESTAMP DUP2 MSTORE POP PUSH0 DUP5 PUSH1 0x40 MLOAD PUSH2 0x55B SWAP2 SWAP1 PUSH2 0xFD5 JUMP JUMPDEST SWAP1 DUP2 MSTORE PUSH1 0x20 ADD PUSH1 0x40 MLOAD DUP1 SWAP2 SUB SWAP1 KECCAK256 PUSH0 DUP3 ADD MLOAD DUP2 PUSH0 ADD SWAP1 DUP2 PUSH2 0x57C SWAP2 SWAP1 PUSH2 0x124D JUMP JUMPDEST POP PUSH1 0x20 DUP3 ADD MLOAD DUP2 PUSH1 0x1 ADD SWAP1 DUP2 PUSH2 0x592 SWAP2 SWAP1 PUSH2 0x124D JUMP JUMPDEST POP PUSH1 0x40 DUP3 ADD MLOAD DUP2 PUSH1 0x2 ADD SWAP1 DUP2 PUSH2 0x5A8 SWAP2 SWAP1 PUSH2 0x124D JUMP JUMPDEST POP PUSH1 0x60 DUP3 ADD MLOAD DUP2 PUSH1 0x3 ADD SWAP1 DUP2 PUSH2 0x5BE SWAP2 SWAP1 PUSH2 0x124D JUMP JUMPDEST POP PUSH1 0x80 DUP3 ADD MLOAD DUP2 PUSH1 0x4 ADD PUSH0 PUSH2 0x100 EXP DUP2 SLOAD DUP2 PUSH20 0xFFFFFFFFFFFFFFFFFFFFFFFFFFFFFFFFFFFFFFFF MUL NOT AND SWAP1 DUP4 PUSH20 0xFFFFFFFFFFFFFFFFFFFFFFFFFFFFFFFFFFFFFFFF AND MUL OR SWAP1 SSTORE POP PUSH1 0xA0 DUP3 ADD MLOAD DUP2 PUSH1 0x5 ADD SSTORE SWAP1 POP POP PUSH1 0x1 DUP4 SWAP1 DUP1 PUSH1 0x1 DUP2 SLOAD ADD DUP1 DUP3 SSTORE DUP1 SWAP2 POP POP PUSH1 0x1 SWAP1 SUB SWAP1 PUSH0 MSTORE PUSH1 0x20 PUSH0 KECCAK256 ADD PUSH0 SWAP1 SWAP2 SWAP1 SWAP2 SWAP1 SWAP2 POP SWAP1 DUP2 PUSH2 0x643 SWAP2 SWAP1 PUSH2 0x124D JUMP JUMPDEST POP PUSH32 0xF4690BB36D9E13C5EB5EAC5FA522903D950FAD6FA0E3A7811F176D7022548CE4 DUP4 CALLER PUSH1 0x40 MLOAD PUSH2 0x675 SWAP3 SWAP2 SWAP1 PUSH2 0x131C JUMP JUMPDEST PUSH1 0x40 MLOAD DUP1 SWAP2 SUB SWAP1 LOG1 POP POP POP JUMP JUMPDEST PUSH0 PUSH20 0xFFFFFFFFFFFFFFFFFFFFFFFFFFFFFFFFFFFFFFFF AND PUSH0 DUP4 PUSH1 0x40 MLOAD PUSH2 0x6A8 SWAP2 SWAP1 PUSH2 0xFD5 JUMP JUMPDEST SWAP1 DUP2 MSTORE PUSH1 0x20 ADD PUSH1 0x40 MLOAD DUP1 SWAP2 SUB SWAP1 KECCAK256 PUSH1 0x4 ADD PUSH0 SWAP1 SLOAD SWAP1 PUSH2 0x100 EXP SWAP1 DIV PUSH20 0xFFFFFFFFFFFFFFFFFFFFFFFFFFFFFFFFFFFFFFFF AND PUSH20 0xFFFFFFFFFFFFFFFFFFFFFFFFFFFFFFFFFFFFFFFF AND SUB PUSH2 0x72F JUMPI PUSH1 0x40 MLOAD PUSH32 0x8C379A000000000000000000000000000000000000000000000000000000000 DUP2 MSTORE PUSH1 0x4 ADD PUSH2 0x726 SWAP1 PUSH2 0x1394 JUMP JUMPDEST PUSH1 0x40 MLOAD DUP1 SWAP2 SUB SWAP1 REVERT JUMPDEST DUP1 PUSH0 DUP4 PUSH1 0x40 MLOAD PUSH2 0x73F SWAP2 SWAP1 PUSH2 0xFD5 JUMP JUMPDEST SWAP1 DUP2 MSTORE PUSH1 0x20 ADD PUSH1 0x40 MLOAD DUP1 SWAP2 SUB SWAP1 KECCAK256 PUSH1 0x3 ADD SWAP1 DUP2 PUSH2 0x75C SWAP2 SWAP1 PUSH2 0x124D JUMP JUMPDEST POP PUSH32 0xB75B1FEC1BC9156569AE9F72FB29C6E6727B297E191D358465FFF4C09D8F7D26 DUP3 DUP3 PUSH1 0x40 MLOAD PUSH2 0x78E SWAP3 SWAP2 SWAP1 PUSH2 0x13B2 JUMP JUMPDEST PUSH1 0x40 MLOAD DUP1 SWAP2 SUB SWAP1 LOG1 POP POP JUMP JUMPDEST PUSH1 0x1 DUP2 DUP2 SLOAD DUP2 LT PUSH2 0x7A9 JUMPI PUSH0 DUP1 REVERT JUMPDEST SWAP1 PUSH0 MSTORE PUSH1 0x20 PUSH0 KECCAK256 ADD PUSH0 SWAP2 POP SWAP1 POP DUP1 SLOAD PUSH2 0x7C1 SWAP1 PUSH2 0x1018 JUMP JUMPDEST DUP1 PUSH1 0x1F ADD PUSH1 0x20 DUP1 SWAP2 DIV MUL PUSH1 0x20 ADD PUSH1 0x40 MLOAD SWAP1 DUP2 ADD PUSH1 0x40 MSTORE DUP1 SWAP3 SWAP2 SWAP1 DUP2 DUP2 MSTORE PUSH1 0x20 ADD DUP3 DUP1 SLOAD PUSH2 0x7ED SWAP1 PUSH2 0x1018 JUMP JUMPDEST DUP1 ISZERO PUSH2 0x838 JUMPI DUP1 PUSH1 0x1F LT PUSH2 0x80F JUMPI PUSH2 0x100 DUP1 DUP4 SLOAD DIV MUL DUP4 MSTORE SWAP2 PUSH1 0x20 ADD SWAP2 PUSH2 0x838 JUMP JUMPDEST DUP3 ADD SWAP2 SWAP1 PUSH0 MSTORE PUSH1 0x20 PUSH0 KECCAK256 SWAP1 JUMPDEST DUP2 SLOAD DUP2 MSTORE SWAP1 PUSH1 0x1 ADD SWAP1 PUSH1 0x20 ADD DUP1 DUP4 GT PUSH2 0x81B JUMPI DUP3 SWAP1 SUB PUSH1 0x1F AND DUP3 ADD SWAP2 JUMPDEST POP POP POP POP POP DUP2 JUMP JUMPDEST PUSH0 DUP2 DUP1 MLOAD PUSH1 0x20 DUP2 ADD DUP3 ADD DUP1 MLOAD DUP5 DUP3 MSTORE PUSH1 0x20 DUP4 ADD PUSH1 0x20 DUP6 ADD KECCAK256 DUP2 DUP4 MSTORE DUP1 SWAP6 POP POP POP POP POP POP PUSH0 SWAP2 POP SWAP1 POP DUP1 PUSH0 ADD DUP1 SLOAD PUSH2 0x876 SWAP1 PUSH2 0x1018 JUMP JUMPDEST DUP1 PUSH1 0x1F ADD PUSH1 0x20 DUP1 SWAP2 DIV MUL PUSH1 0x20 ADD PUSH1 0x40 MLOAD SWAP1 DUP2 ADD PUSH1 0x40 MSTORE DUP1 SWAP3 SWAP2 SWAP1 DUP2 DUP2 MSTORE PUSH1 0x20 ADD DUP3 DUP1 SLOAD PUSH2 0x8A2 SWAP1 PUSH2 0x1018 JUMP JUMPDEST DUP1 ISZERO PUSH2 0x8ED JUMPI DUP1 PUSH1 0x1F LT PUSH2 0x8C4 JUMPI PUSH2 0x100 DUP1 DUP4 SLOAD DIV MUL DUP4 MSTORE SWAP2 PUSH1 0x20 ADD SWAP2 PUSH2 0x8ED JUMP JUMPDEST DUP3 ADD SWAP2 SWAP1 PUSH0 MSTORE PUSH1 0x20 PUSH0 KECCAK256 SWAP1 JUMPDEST DUP2 SLOAD DUP2 MSTORE SWAP1 PUSH1 0x1 ADD SWAP1 PUSH1 0x20 ADD DUP1 DUP4 GT PUSH2 0x8D0 JUMPI DUP3 SWAP1 SUB PUSH1 0x1F AND DUP3 ADD SWAP2 JUMPDEST POP POP POP POP POP SWAP1 DUP1 PUSH1 0x1 ADD DUP1 SLOAD PUSH2 0x902 SWAP1 PUSH2 0x1018 JUMP JUMPDEST DUP1 PUSH1 0x1F ADD PUSH1 0x20 DUP1 SWAP2 DIV MUL PUSH1 0x20 ADD PUSH1 0x40 MLOAD SWAP1 DUP2 ADD PUSH1 0x40 MSTORE DUP1 SWAP3 SWAP2 SWAP1 DUP2 DUP2 MSTORE PUSH1 0x20 ADD DUP3 DUP1 SLOAD PUSH2 0x92E SWAP1 PUSH2 0x1018 JUMP JUMPDEST DUP1 ISZERO PUSH2 0x979 JUMPI DUP1 PUSH1 0x1F LT PUSH2 0x950 JUMPI PUSH2 0x100 DUP1 DUP4 SLOAD DIV MUL DUP4 MSTORE SWAP2 PUSH1 0x20 ADD SWAP2 PUSH2 0x979 JUMP JUMPDEST DUP3 ADD SWAP2 SWAP1 PUSH0 MSTORE PUSH1 0x20 PUSH0 KECCAK256 SWAP1 JUMPDEST DUP2 SLOAD DUP2 MSTORE SWAP1 PUSH1 0x1 ADD SWAP1 PUSH1 0x20 ADD DUP1 DUP4 GT PUSH2 0x95C JUMPI DUP3 SWAP1 SUB PUSH1 0x1F AND DUP3 ADD SWAP2 JUMPDEST POP POP POP POP POP SWAP1 DUP1 PUSH1 0x2 ADD DUP1 SLOAD PUSH2 0x98E SWAP1 PUSH2 0x1018 JUMP JUMPDEST DUP1 PUSH1 0x1F ADD PUSH1 0x20 DUP1 SWAP2 DIV MUL PUSH1 0x20 ADD PUSH1 0x40 MLOAD SWAP1 DUP2 ADD PUSH1 0x40 MSTORE DUP1 SWAP3 SWAP2 SWAP1 DUP2 DUP2 MSTORE PUSH1 0x20 ADD DUP3 DUP1 SLOAD PUSH2 0x9BA SWAP1 PUSH2 0x1018 JUMP JUMPDEST DUP1 ISZERO PUSH2 0xA05 JUMPI DUP1 PUSH1 0x1F LT PUSH2 0x9DC JUMPI PUSH2 0x100 DUP1 DUP4 SLOAD DIV MUL DUP4 MSTORE SWAP2 PUSH1 0x20 ADD SWAP2 PUSH2 0xA05 JUMP JUMPDEST DUP3 ADD SWAP2 SWAP1 PUSH0 MSTORE PUSH1 0x20 PUSH0 KECCAK256 SWAP1 JUMPDEST DUP2 SLOAD DUP2 MSTORE SWAP1 PUSH1 0x1 ADD SWAP1 PUSH1 0x20 ADD DUP1 DUP4 GT PUSH2 0x9E8 JUMPI DUP3 SWAP1 SUB PUSH1 0x1F AND DUP3 ADD SWAP2 JUMPDEST POP POP POP POP POP SWAP1 DUP1 PUSH1 0x3 ADD DUP1 SLOAD PUSH2 0xA1A SWAP1 PUSH2 0x1018 JUMP JUMPDEST DUP1 PUSH1 0x1F ADD PUSH1 0x20 DUP1 SWAP2 DIV MUL PUSH1 0x20 ADD PUSH1 0x40 MLOAD SWAP1 DUP2 ADD PUSH1 0x40 MSTORE DUP1 SWAP3 SWAP2 SWAP1 DUP2 DUP2 MSTORE PUSH1 0x20 ADD DUP3 DUP1 SLOAD PUSH2 0xA46 SWAP1 PUSH2 0x1018 JUMP JUMPDEST DUP1 ISZERO PUSH2 0xA91 JUMPI DUP1 PUSH1 0x1F LT PUSH2 0xA68 JUMPI PUSH2 0x100 DUP1 DUP4 SLOAD DIV MUL DUP4 MSTORE SWAP2 PUSH1 0x20 ADD SWAP2 PUSH2 0xA91 JUMP JUMPDEST DUP3 ADD SWAP2 SWAP1 PUSH0 MSTORE PUSH1 0x20 PUSH0 KECCAK256 SWAP1 JUMPDEST DUP2 SLOAD DUP2 MSTORE SWAP1 PUSH1 0x1 ADD SWAP1 PUSH1 0x20 ADD DUP1 DUP4 GT PUSH2 0xA74 JUMPI DUP3 SWAP1 SUB PUSH1 0x1F AND DUP3 ADD SWAP2 JUMPDEST POP POP POP POP POP SWAP1 DUP1 PUSH1 0x4 ADD PUSH0 SWAP1 SLOAD SWAP1 PUSH2 0x100 EXP SWAP1 DIV PUSH20 0xFFFFFFFFFFFFFFFFFFFFFFFFFFFFFFFFFFFFFFFF AND SWAP1 DUP1 PUSH1 0x5 ADD SLOAD SWAP1 POP DUP7 JUMP JUMPDEST PUSH0 PUSH1 0x40 MLOAD SWAP1 POP SWAP1 JUMP JUMPDEST PUSH0 DUP1 REVERT JUMPDEST PUSH0 DUP1 REVERT JUMPDEST PUSH0 DUP1 REVERT JUMPDEST PUSH0 DUP1 REVERT JUMPDEST PUSH0 PUSH1 0x1F NOT PUSH1 0x1F DUP4 ADD AND SWAP1 POP SWAP2 SWAP1 POP JUMP JUMPDEST PUSH32 0x4E487B7100000000000000000000000000000000000000000000000000000000 PUSH0 MSTORE PUSH1 0x41 PUSH1 0x4 MSTORE PUSH1 0x24 PUSH0 REVERT JUMPDEST PUSH2 0xB25 DUP3 PUSH2 0xADF JUMP JUMPDEST DUP2 ADD DUP2 DUP2 LT PUSH8 0xFFFFFFFFFFFFFFFF DUP3 GT OR ISZERO PUSH2 0xB44 JUMPI PUSH2 0xB43 PUSH2 0xAEF JUMP JUMPDEST JUMPDEST DUP1 PUSH1 0x40 MSTORE POP POP POP JUMP JUMPDEST PUSH0 PUSH2 0xB56 PUSH2 0xAC6 JUMP JUMPDEST SWAP1 POP PUSH2 0xB62 DUP3 DUP3 PUSH2 0xB1C JUMP JUMPDEST SWAP2 SWAP1 POP JUMP JUMPDEST PUSH0 PUSH8 0xFFFFFFFFFFFFFFFF DUP3 GT ISZERO PUSH2 0xB81 JUMPI PUSH2 0xB80 PUSH2 0xAEF JUMP JUMPDEST JUMPDEST PUSH2 0xB8A DUP3 PUSH2 0xADF JUMP JUMPDEST SWAP1 POP PUSH1 0x20 DUP2 ADD SWAP1 POP SWAP2 SWAP1 POP JUMP JUMPDEST DUP3 DUP2 DUP4 CALLDATACOPY PUSH0 DUP4 DUP4 ADD MSTORE POP POP POP JUMP JUMPDEST PUSH0 PUSH2 0xBB7 PUSH2 0xBB2 DUP5 PUSH2 0xB67 JUMP JUMPDEST PUSH2 0xB4D JUMP JUMPDEST SWAP1 POP DUP3 DUP2 MSTORE PUSH1 0x20 DUP2 ADD DUP5 DUP5 DUP5 ADD GT ISZERO PUSH2 0xBD3 JUMPI PUSH2 0xBD2 PUSH2 0xADB JUMP JUMPDEST JUMPDEST PUSH2 0xBDE DUP5 DUP3 DUP6 PUSH2 0xB97 JUMP JUMPDEST POP SWAP4 SWAP3 POP POP POP JUMP JUMPDEST PUSH0 DUP3 PUSH1 0x1F DUP4 ADD SLT PUSH2 0xBFA JUMPI PUSH2 0xBF9 PUSH2 0xAD7 JUMP JUMPDEST JUMPDEST DUP2 CALLDATALOAD PUSH2 0xC0A DUP5 DUP3 PUSH1 0x20 DUP7 ADD PUSH2 0xBA5 JUMP JUMPDEST SWAP2 POP POP SWAP3 SWAP2 POP POP JUMP JUMPDEST PUSH0 PUSH1 0x20 DUP3 DUP5 SUB SLT ISZERO PUSH2 0xC28 JUMPI PUSH2 0xC27 PUSH2 0xACF JUMP JUMPDEST JUMPDEST PUSH0 DUP3 ADD CALLDATALOAD PUSH8 0xFFFFFFFFFFFFFFFF DUP2 GT ISZERO PUSH2 0xC45 JUMPI PUSH2 0xC44 PUSH2 0xAD3 JUMP JUMPDEST JUMPDEST PUSH2 0xC51 DUP5 DUP3 DUP6 ADD PUSH2 0xBE6 JUMP JUMPDEST SWAP2 POP POP SWAP3 SWAP2 POP POP JUMP JUMPDEST PUSH0 DUP2 MLOAD SWAP1 POP SWAP2 SWAP1 POP JUMP JUMPDEST PUSH0 DUP3 DUP3 MSTORE PUSH1 0x20 DUP3 ADD SWAP1 POP SWAP3 SWAP2 POP POP JUMP JUMPDEST PUSH0 JUMPDEST DUP4 DUP2 LT ISZERO PUSH2 0xC91 JUMPI DUP1 DUP3 ADD MLOAD DUP2 DUP5 ADD MSTORE PUSH1 0x20 DUP2 ADD SWAP1 POP PUSH2 0xC76 JUMP JUMPDEST PUSH0 DUP5 DUP5 ADD MSTORE POP POP POP POP JUMP JUMPDEST PUSH0 PUSH2 0xCA6 DUP3 PUSH2 0xC5A JUMP JUMPDEST PUSH2 0xCB0 DUP2 DUP6 PUSH2 0xC64 JUMP JUMPDEST SWAP4 POP PUSH2 0xCC0 DUP2 DUP6 PUSH1 0x20 DUP7 ADD PUSH2 0xC74 JUMP JUMPDEST PUSH2 0xCC9 DUP2 PUSH2 0xADF JUMP JUMPDEST DUP5 ADD SWAP2 POP POP SWAP3 SWAP2 POP POP JUMP JUMPDEST PUSH0 PUSH20 0xFFFFFFFFFFFFFFFFFFFFFFFFFFFFFFFFFFFFFFFF DUP3 AND SWAP1 POP SWAP2 SWAP1 POP JUMP JUMPDEST PUSH0 PUSH2 0xCFD DUP3 PUSH2 0xCD4 JUMP JUMPDEST SWAP1 POP SWAP2 SWAP1 POP JUMP JUMPDEST PUSH2 0xD0D DUP2 PUSH2 0xCF3 JUMP JUMPDEST DUP3 MSTORE POP POP JUMP JUMPDEST PUSH0 DUP2 SWAP1 POP SWAP2 SWAP1 POP JUMP JUMPDEST PUSH2 0xD25 DUP2 PUSH2 0xD13 JUMP JUMPDEST DUP3 MSTORE POP POP JUMP JUMPDEST PUSH0 PUSH1 0xA0 DUP3 ADD SWAP1 POP DUP2 DUP2 SUB PUSH0 DUP4 ADD MSTORE PUSH2 0xD43 DUP2 DUP9 PUSH2 0xC9C JUMP JUMPDEST SWAP1 POP DUP2 DUP2 SUB PUSH1 0x20 DUP4 ADD MSTORE PUSH2 0xD57 DUP2 DUP8 PUSH2 0xC9C JUMP JUMPDEST SWAP1 POP DUP2 DUP2 SUB PUSH1 0x40 DUP4 ADD MSTORE PUSH2 0xD6B DUP2 DUP7 PUSH2 0xC9C JUMP JUMPDEST SWAP1 POP PUSH2 0xD7A PUSH1 0x60 DUP4 ADD DUP6 PUSH2 0xD04 JUMP JUMPDEST PUSH2 0xD87 PUSH1 0x80 DUP4 ADD DUP5 PUSH2 0xD1C JUMP JUMPDEST SWAP7 SWAP6 POP POP POP POP POP POP JUMP JUMPDEST PUSH0 DUP1 PUSH0 PUSH1 0x60 DUP5 DUP7 SUB SLT ISZERO PUSH2 0xDA8 JUMPI PUSH2 0xDA7 PUSH2 0xACF JUMP JUMPDEST JUMPDEST PUSH0 DUP5 ADD CALLDATALOAD PUSH8 0xFFFFFFFFFFFFFFFF DUP2 GT ISZERO PUSH2 0xDC5 JUMPI PUSH2 0xDC4 PUSH2 0xAD3 JUMP JUMPDEST JUMPDEST PUSH2 0xDD1 DUP7 DUP3 DUP8 ADD PUSH2 0xBE6 JUMP JUMPDEST SWAP4 POP POP PUSH1 0x20 DUP5 ADD CALLDATALOAD PUSH8 0xFFFFFFFFFFFFFFFF DUP2 GT ISZERO PUSH2 0xDF2 JUMPI PUSH2 0xDF1 PUSH2 0xAD3 JUMP JUMPDEST JUMPDEST PUSH2 0xDFE DUP7 DUP3 DUP8 ADD PUSH2 0xBE6 JUMP JUMPDEST SWAP3 POP POP PUSH1 0x40 DUP5 ADD CALLDATALOAD PUSH8 0xFFFFFFFFFFFFFFFF DUP2 GT ISZERO PUSH2 0xE1F JUMPI PUSH2 0xE1E PUSH2 0xAD3 JUMP JUMPDEST JUMPDEST PUSH2 0xE2B DUP7 DUP3 DUP8 ADD PUSH2 0xBE6 JUMP JUMPDEST SWAP2 POP POP SWAP3 POP SWAP3 POP SWAP3 JUMP JUMPDEST PUSH0 DUP1 PUSH1 0x40 DUP4 DUP6 SUB SLT ISZERO PUSH2 0xE4B JUMPI PUSH2 0xE4A PUSH2 0xACF JUMP JUMPDEST JUMPDEST PUSH0 DUP4 ADD CALLDATALOAD PUSH8 0xFFFFFFFFFFFFFFFF DUP2 GT ISZERO PUSH2 0xE68 JUMPI PUSH2 0xE67 PUSH2 0xAD3 JUMP JUMPDEST JUMPDEST PUSH2 0xE74 DUP6 DUP3 DUP7 ADD PUSH2 0xBE6 JUMP JUMPDEST SWAP3 POP POP PUSH1 0x20 DUP4 ADD CALLDATALOAD PUSH8 0xFFFFFFFFFFFFFFFF DUP2 GT ISZERO PUSH2 0xE95 JUMPI PUSH2 0xE94 PUSH2 0xAD3 JUMP JUMPDEST JUMPDEST PUSH2 0xEA1 DUP6 DUP3 DUP7 ADD PUSH2 0xBE6 JUMP JUMPDEST SWAP2 POP POP SWAP3 POP SWAP3 SWAP1 POP JUMP JUMPDEST PUSH2 0xEB4 DUP2 PUSH2 0xD13 JUMP JUMPDEST DUP2 EQ PUSH2 0xEBE JUMPI PUSH0 DUP1 REVERT JUMPDEST POP JUMP JUMPDEST PUSH0 DUP2 CALLDATALOAD SWAP1 POP PUSH2 0xECF DUP2 PUSH2 0xEAB JUMP JUMPDEST SWAP3 SWAP2 POP POP JUMP JUMPDEST PUSH0 PUSH1 0x20 DUP3 DUP5 SUB SLT ISZERO PUSH2 0xEEA JUMPI PUSH2 0xEE9 PUSH2 0xACF JUMP JUMPDEST JUMPDEST PUSH0 PUSH2 0xEF7 DUP5 DUP3 DUP6 ADD PUSH2 0xEC1 JUMP JUMPDEST SWAP2 POP POP SWAP3 SWAP2 POP POP JUMP JUMPDEST PUSH0 PUSH1 0x20 DUP3 ADD SWAP1 POP DUP2 DUP2 SUB PUSH0 DUP4 ADD MSTORE PUSH2 0xF18 DUP2 DUP5 PUSH2 0xC9C JUMP JUMPDEST SWAP1 POP SWAP3 SWAP2 POP POP JUMP JUMPDEST PUSH0 PUSH1 0xC0 DUP3 ADD SWAP1 POP DUP2 DUP2 SUB PUSH0 DUP4 ADD MSTORE PUSH2 0xF38 DUP2 DUP10 PUSH2 0xC9C JUMP JUMPDEST SWAP1 POP DUP2 DUP2 SUB PUSH1 0x20 DUP4 ADD MSTORE PUSH2 0xF4C DUP2 DUP9 PUSH2 0xC9C JUMP JUMPDEST SWAP1 POP DUP2 DUP2 SUB PUSH1 0x40 DUP4 ADD MSTORE PUSH2 0xF60 DUP2 DUP8 PUSH2 0xC9C JUMP JUMPDEST SWAP1 POP DUP2 DUP2 SUB PUSH1 0x60 DUP4 ADD MSTORE PUSH2 0xF74 DUP2 DUP7 PUSH2 0xC9C JUMP JUMPDEST SWAP1 POP PUSH2 0xF83 PUSH1 0x80 DUP4 ADD DUP6 PUSH2 0xD04 JUMP JUMPDEST PUSH2 0xF90 PUSH1 0xA0 DUP4 ADD DUP5 PUSH2 0xD1C JUMP JUMPDEST SWAP8 SWAP7 POP POP POP POP POP POP POP JUMP JUMPDEST PUSH0 DUP2 SWAP1 POP SWAP3 SWAP2 POP POP JUMP JUMPDEST PUSH0 PUSH2 0xFAF DUP3 PUSH2 0xC5A JUMP JUMPDEST PUSH2 0xFB9 DUP2 DUP6 PUSH2 0xF9B JUMP JUMPDEST SWAP4 POP PUSH2 0xFC9 DUP2 DUP6 PUSH1 0x20 DUP7 ADD PUSH2 0xC74 JUMP JUMPDEST DUP1 DUP5 ADD SWAP2 POP POP SWAP3 SWAP2 POP POP JUMP JUMPDEST PUSH0 PUSH2 0xFE0 DUP3 DUP5 PUSH2 0xFA5 JUMP JUMPDEST SWAP2 POP DUP2 SWAP1 POP SWAP3 SWAP2 POP POP JUMP JUMPDEST PUSH32 0x4E487B7100000000000000000000000000000000000000000000000000000000 PUSH0 MSTORE PUSH1 0x22 PUSH1 0x4 MSTORE PUSH1 0x24 PUSH0 REVERT JUMPDEST PUSH0 PUSH1 0x2 DUP3 DIV SWAP1 POP PUSH1 0x1 DUP3 AND DUP1 PUSH2 0x102F JUMPI PUSH1 0x7F DUP3 AND SWAP2 POP JUMPDEST PUSH1 0x20 DUP3 LT DUP2 SUB PUSH2 0x1042 JUMPI PUSH2 0x1041 PUSH2 0xFEB JUMP JUMPDEST JUMPDEST POP SWAP2 SWAP1 POP JUMP JUMPDEST PUSH32 0x46495220616C7265616479206578697374730000000000000000000000000000 PUSH0 DUP3 ADD MSTORE POP JUMP JUMPDEST PUSH0 PUSH2 0x107C PUSH1 0x12 DUP4 PUSH2 0xC64 JUMP JUMPDEST SWAP2 POP PUSH2 0x1087 DUP3 PUSH2 0x1048 JUMP JUMPDEST PUSH1 0x20 DUP3 ADD SWAP1 POP SWAP2 SWAP1 POP JUMP JUMPDEST PUSH0 PUSH1 0x20 DUP3 ADD SWAP1 POP DUP2 DUP2 SUB PUSH0 DUP4 ADD MSTORE PUSH2 0x10A9 DUP2 PUSH2 0x1070 JUMP JUMPDEST SWAP1 POP SWAP2 SWAP1 POP JUMP JUMPDEST PUSH0 DUP2 SWAP1 POP DUP2 PUSH0 MSTORE PUSH1 0x20 PUSH0 KECCAK256 SWAP1 POP SWAP2 SWAP1 POP JUMP JUMPDEST PUSH0 PUSH1 0x20 PUSH1 0x1F DUP4 ADD DIV SWAP1 POP SWAP2 SWAP1 POP JUMP JUMPDEST PUSH0 DUP3 DUP3 SHL SWAP1 POP SWAP3 SWAP2 POP POP JUMP JUMPDEST PUSH0 PUSH1 0x8 DUP4 MUL PUSH2 0x110C PUSH32 0xFFFFFFFFFFFFFFFFFFFFFFFFFFFFFFFFFFFFFFFFFFFFFFFFFFFFFFFFFFFFFFFF DUP3 PUSH2 0x10D1 JUMP JUMPDEST PUSH2 0x1116 DUP7 DUP4 PUSH2 0x10D1 JUMP JUMPDEST SWAP6 POP DUP1 NOT DUP5 AND SWAP4 POP DUP1 DUP7 AND DUP5 OR SWAP3 POP POP POP SWAP4 SWAP3 POP POP POP JUMP JUMPDEST PUSH0 DUP2 SWAP1 POP SWAP2 SWAP1 POP JUMP JUMPDEST PUSH0 PUSH2 0x1151 PUSH2 0x114C PUSH2 0x1147 DUP5 PUSH2 0xD13 JUMP JUMPDEST PUSH2 0x112E JUMP JUMPDEST PUSH2 0xD13 JUMP JUMPDEST SWAP1 POP SWAP2 SWAP1 POP JUMP JUMPDEST PUSH0 DUP2 SWAP1 POP SWAP2 SWAP1 POP JUMP JUMPDEST PUSH2 0x116A DUP4 PUSH2 0x1137 JUMP JUMPDEST PUSH2 0x117E PUSH2 0x1176 DUP3 PUSH2 0x1158 JUMP JUMPDEST DUP5 DUP5 SLOAD PUSH2 0x10DD JUMP JUMPDEST DUP3 SSTORE POP POP POP POP JUMP JUMPDEST PUSH0 SWAP1 JUMP JUMPDEST PUSH2 0x1192 PUSH2 0x1186 JUMP JUMPDEST PUSH2 0x119D DUP2 DUP5 DUP5 PUSH2 0x1161 JUMP JUMPDEST POP POP POP JUMP JUMPDEST JUMPDEST DUP2 DUP2 LT ISZERO PUSH2 0x11C0 JUMPI PUSH2 0x11B5 PUSH0 DUP3 PUSH2 0x118A JUMP JUMPDEST PUSH1 0x1 DUP2 ADD SWAP1 POP PUSH2 0x11A3 JUMP JUMPDEST POP POP JUMP JUMPDEST PUSH1 0x1F DUP3 GT ISZERO PUSH2 0x1205 JUMPI PUSH2 0x11D6 DUP2 PUSH2 0x10B0 JUMP JUMPDEST PUSH2 0x11DF DUP5 PUSH2 0x10C2 JUMP JUMPDEST DUP2 ADD PUSH1 0x20 DUP6 LT ISZERO PUSH2 0x11EE JUMPI DUP2 SWAP1 POP JUMPDEST PUSH2 0x1202 PUSH2 0x11FA DUP6 PUSH2 0x10C2 JUMP JUMPDEST DUP4 ADD DUP3 PUSH2 0x11A2 JUMP JUMPDEST POP POP JUMPDEST POP POP POP JUMP JUMPDEST PUSH0 DUP3 DUP3 SHR SWAP1 POP SWAP3 SWAP2 POP POP JUMP JUMPDEST PUSH0 PUSH2 0x1225 PUSH0 NOT DUP5 PUSH1 0x8 MUL PUSH2 0x120A JUMP JUMPDEST NOT DUP1 DUP4 AND SWAP2 POP POP SWAP3 SWAP2 POP POP JUMP JUMPDEST PUSH0 PUSH2 0x123D DUP4 DUP4 PUSH2 0x1216 JUMP JUMPDEST SWAP2 POP DUP3 PUSH1 0x2 MUL DUP3 OR SWAP1 POP SWAP3 SWAP2 POP POP JUMP JUMPDEST PUSH2 0x1256 DUP3 PUSH2 0xC5A JUMP JUMPDEST PUSH8 0xFFFFFFFFFFFFFFFF DUP2 GT ISZERO PUSH2 0x126F JUMPI PUSH2 0x126E PUSH2 0xAEF JUMP JUMPDEST JUMPDEST PUSH2 0x1279 DUP3 SLOAD PUSH2 0x1018 JUMP JUMPDEST PUSH2 0x1284 DUP3 DUP3 DUP6 PUSH2 0x11C4 JUMP JUMPDEST PUSH0 PUSH1 0x20 SWAP1 POP PUSH1 0x1F DUP4 GT PUSH1 0x1 DUP2 EQ PUSH2 0x12B5 JUMPI PUSH0 DUP5 ISZERO PUSH2 0x12A3 JUMPI DUP3 DUP8 ADD MLOAD SWAP1 POP JUMPDEST PUSH2 0x12AD DUP6 DUP3 PUSH2 0x1232 JUMP JUMPDEST DUP7 SSTORE POP PUSH2 0x1314 JUMP JUMPDEST PUSH1 0x1F NOT DUP5 AND PUSH2 0x12C3 DUP7 PUSH2 0x10B0 JUMP JUMPDEST PUSH0 JUMPDEST DUP3 DUP2 LT ISZERO PUSH2 0x12EA JUMPI DUP5 DUP10 ADD MLOAD DUP3 SSTORE PUSH1 0x1 DUP3 ADD SWAP2 POP PUSH1 0x20 DUP6 ADD SWAP5 POP PUSH1 0x20 DUP2 ADD SWAP1 POP PUSH2 0x12C5 JUMP JUMPDEST DUP7 DUP4 LT ISZERO PUSH2 0x1307 JUMPI DUP5 DUP10 ADD MLOAD PUSH2 0x1303 PUSH1 0x1F DUP10 AND DUP3 PUSH2 0x1216 JUMP JUMPDEST DUP4 SSTORE POP JUMPDEST PUSH1 0x1 PUSH1 0x2 DUP9 MUL ADD DUP9 SSTORE POP POP POP JUMPDEST POP POP POP POP POP POP JUMP JUMPDEST PUSH0 PUSH1 0x40 DUP3 ADD SWAP1 POP DUP2 DUP2 SUB PUSH0 DUP4 ADD MSTORE PUSH2 0x1334 DUP2 DUP6 PUSH2 0xC9C JUMP JUMPDEST SWAP1 POP PUSH2 0x1343 PUSH1 0x20 DUP4 ADD DUP5 PUSH2 0xD04 JUMP JUMPDEST SWAP4 SWAP3 POP POP POP JUMP JUMPDEST PUSH32 0x46495220646F6573206E6F742065786973740000000000000000000000000000 PUSH0 DUP3 ADD MSTORE POP JUMP JUMPDEST PUSH0 PUSH2 0x137E PUSH1 0x12 DUP4 PUSH2 0xC64 JUMP JUMPDEST SWAP2 POP PUSH2 0x1389 DUP3 PUSH2 0x134A JUMP JUMPDEST PUSH1 0x20 DUP3 ADD SWAP1 POP SWAP2 SWAP1 POP JUMP JUMPDEST PUSH0 PUSH1 0x20 DUP3 ADD SWAP1 POP DUP2 DUP2 SUB PUSH0 DUP4 ADD MSTORE PUSH2 0x13AB DUP2 PUSH2 0x1372 JUMP JUMPDEST SWAP1 POP SWAP2 SWAP1 POP JUMP JUMPDEST PUSH0 PUSH1 0x40 DUP3 ADD SWAP1 POP DUP2 DUP2 SUB PUSH0 DUP4 ADD MSTORE PUSH2 0x13CA DUP2 DUP6 PUSH2 0xC9C JUMP JUMPDEST SWAP1 POP DUP2 DUP2 SUB PUSH1 0x20 DUP4 ADD MSTORE PUSH2 0x13DE DUP2 DUP5 PUSH2 0xC9C JUMP JUMPDEST SWAP1 POP SWAP4 SWAP3 POP POP POP JUMP INVALID LOG2 PUSH5 0x6970667358 0x22 SLT KECCAK256 SWAP5 DUP2 PUSH12 0x1091EECE5F8C3BA81CF74B68 DUP3 0x2A PUSH10 0x1E537314BFF59294FD84 0xD7 PUSH11 0x94AF64736F6C6343000814 STOP CALLER "},"gasEstimates":{"creation":{"codeDepositCost":"1029800","executionCost":"1065","totalCost":"1030865"},"external":{"complaintIds(uint256)":"infinite","complaints(string)":"infinite","fileComplaint(string,string,string)":"infinite","getComplaint(string)":"infinite","updateStatus(string,string)":"infinite"}},"methodIdentifiers":{"complaintIds(uint256)":"9be8df79","complaints(string)":"f423c096","fileComplaint(string,string,string)":"2227454c","getComplaint(string)":"05fd4b81","updateStatus(string,string)":"347047cc"}},"storageLayout":{"storage":[{"astId":19,"contract":"ComplaintRegistry.sol:ComplaintRegistry","label":"complaints","offset":0,"slot":"0","type":"t_mapping(t_string_memory_ptr,t_struct(Complaint)14_storage)"},{"astId":22,"contract":"ComplaintRegistry.sol:ComplaintRegistry","label":"complaintIds","offset":0,"slot":"1","type":"t_array(t_string_storage)dyn_storage"}],"types":{"t_address":{"encoding":"inplace","label":"address","numberOfBytes":"20"},"t_array(t_string_storage)dyn_storage":{"base":"t_string_storage","encoding":"dynamic_array","label":"string[]","numberOfBytes":"32"},"t_mapping(t_string_memory_ptr,t_struct(Complaint)14_storage)":{"encoding":"mapping","key":"t_string_memory_ptr","label":"mapping(string => struct ComplaintRegistry.Complaint)","numberOfBytes":"32","value":"t_struct(Complaint)14_storage"},"t_string_memory_ptr":{"encoding":"bytes","label":"string","numberOfBytes":"32"},"t_string_storage":{"encoding":"bytes","label":"string","numberOfBytes":"32"},"t_struct(Complaint)14_storage":{"encoding":"inplace","label":"struct ComplaintRegistry.Complaint","members":[{"astId":3,"contract":"ComplaintRegistry.sol:ComplaintRegistry","label":"firId","offset":0,"slot":"0","type":"t_string_storage"},{"astId":5,"contract":"ComplaintRegistry.sol:ComplaintRegistry","label":"evidenceHash","offset":0,"slot":"1","type":"t_string_storage"},{"astId":7,"contract":"ComplaintRegistry.sol:ComplaintRegistry","label":"metadataHash","offset":0,"slot":"2","type":"t_string_storage"},{"astId":9,"contract":"ComplaintRegistry.sol:ComplaintRegistry","label":"status","offset":0,"slot":"3","type":"t_string_storage"},{"astId":11,"contract":"ComplaintRegistry.sol:ComplaintRegistry","label":"reporter","offset":0,"slot":"4","type":"t_address"},{"astId":13,"contract":"ComplaintRegistry.sol:ComplaintRegistry","label":"timestamp","offset":0,"slot":"5","type":"t_uint256"}],"numberOfBytes":"192"},"t_uint256":{"encoding":"inplace","label":"uint256","numberOfBytes":"32"}}},"userdoc":{"kind":"user","methods":{},"version":1}}